:040000003AEF02F0E1
:100300000068656C6C6F20776F726C642020000051
:10031000000E076E000E066E07BE06D0075018E1ED
:10032000060E065CD8B01200000E056E000E046EBC
:1003300002D0044A052A0150045C0550800A036E6D
:100340000250800A0358D8A0F4D7064A072AE4D7F7
:1003500012000B6E3C0E0B6405D00B50970F11EC86
:1003600002F01200280E0B6405D00B506B0F11EC3D
:1003700002F01200140E0B6405D00B50AB0F11EC01
:1003800002F012000B507F0F11EC02F01200020E6F
:1003900011EC02F0280E11EC02F0010E11EC02F04B
:1003A000170E11EC02F00C0E11EC02F0060E11EC1F
:1003B00002F0830E11EC02F012000AD00BC0F6FF1F
:1003C0000CC0F7FF0800F55002EC02F00B4A0C2AB3
:1003D0000BC0F6FF0CC0F7FF0800F5500009D8B4B9
:1003E0001200ECD7000E956E000E8C6EC7EC01F07B
:1003F000010EA9EC01F0010E0B6E030E0C6EDDEC8C
:1004000001F0F6D7096E0950F00B0A6E0A5020EC85
:1004100002F00938F00BF00B0A6E0A5020EC02F0E3
:100420001200096E0950F00B0A6E0A502DEC02F012
:100430000938F00BF00B0A6E0A502DEC02F0120096
:10044000086E08C08CFF8C868C84000E026E0A0E2B
:10045000016E88EC01F08C941200086E08C08CFFCD
:100460008C968C84000E026E0A0E016E88EC01F0F0
:100470008C941200000EF86E030EF76E0001F2EF7E
:0204800001F089
:020000040020DA
:08000000FFFFFFFFFFFFFFFF00
:020000040030CA
:0E000000FF09191EFF8281FF0FC00FE00F40A5
:00000001FF
