:020000040000FA
:060000003FEF01F01200C9
:020006000000F8
:080008000F0E926EBD0EC06EDA
:10001000C16A1200D9CFE6FFE1CFD9FF280EE66E04
:100020004DEC01F0E552FE0EDB50040DF350C26EB4
:10003000C280E552E7CFD9FF1200C36AC46AC28208
:10004000C2B2FED7C450126E12C013F0126AC3506F
:1000500000011210106E13C011F010C0F3FF11C098
:10006000F4FF00D01200C36AC46AC282C2B2FED7D3
:10007000C35000D01200D9CFE6FFE1CFD9FF020E66
:10008000E1263DD8C1DFE66AC5DFE552D6DFF3CF12
:10009000DEFFF4CFDDFFD9CFE9FFDACFEAFF040EB0
:1000A0000D6E0E6AEECF08F0EDCF09F0F3EC00F024
:1000B00008C0EEFF09C0EDFFDECFE6FFDDCFE6FFB3
:1000C0002DD8E552E552DECFE6FFDDCFE6FF31D891
:1000D000E552E552D8D7020EE15C02E2E16AE55250
:1000E000E16EE552E7CFD9FF120094948B947B0E1A
:1000F000CB6E070ECA6EBE6A4C0EBD6E1200949493
:100100008B94959A8C9A7B0ECB6E070ECA6EBE6A44
:100110004C0EBD6EBB6AFC0EBA6E1200D9CFE6FF64
:10012000E1CFD9FFFD0EDB50BE6EE552E7CFD9FF20
:100130001200D9CFE6FFE1CFD9FFFD0EDB50BB6E39
:08014000E552E7CFD9FF1200E0
:08014800060EF66E000EF76EC4
:10015000000EF86E00010900F550656F0900F550BA
:10016000666F03E1656701D03DD00900F550606F0F
:100170000900F550616F0900F550626F0900090030
:10018000F550E96E0900F550EA6E09000900090012
:10019000F550636F0900F550646F09000900F6CF50
:1001A00067F0F7CF68F0F8CF69F060C0F6FF61C084
:1001B000F7FF62C0F8FF0001635302E1645307E0F8
:1001C0000900F550EE6E6307F8E26407F9D767C0DF
:1001D000F6FF68C0F7FF69C0F8FF00016507000E71
:0601E000665BBFD71200B0
:0A01E600006A0EAEFCEF00F00D6C95
:1001F0000E1EE86A0E22001E09AE04EF01F0086C24
:10020000091EE86A0922001E19EC01F009BE14EF6C
:1002100001F000AE000C086C091EE86A0922046CAB
:10022000051EE86A0522000C00BE0BEF01F00188F4
:02023000FF0CC1
:0E023200056A046A100EE76ED8900836093689
:10024000043605360D50045C0E50055805E30D507C
:0E025000045E0E50055A082AE72EF0D7120061
:02025E00000E90
:10026000F36E00EE00F0030E01D81200EA6002D037
:0E027000EE6AFCD7F350E9601200EE6AFCD78C
:02027E0012EE7E
:1002800000F022EE00F0F86A019CA4EC00F058ECBB
:0A02900001F03BEC00F0FBD7120078
:06029A00FF0EE350E84EE8
:1002A0001200000000D000D000D0E82EFAD71200D3
:0202B00012003A
:020000040030CA
:0100010009F5
:010003001EDE
:010005008278
:00000001FF
