:020000040000FA
:0600000065EF01F01200A3
:020006000000F8
:08000800D9CFE6FFE1CFD9FFDB
:10001000720EE126D9CFE9FFDACFEAFF480EEE6E85
:10002000650EEE6E6C0EEE6EEE6E6F0EEE6E200EC8
:10003000EE6E570EEE6E6F0EEE6E720EEE6E6C0E74
:10004000EE6E640EEE6E210EEE6EEE6A600ED36EF4
:100050009B8C0F0EC16EC0EC00F0D9CFE6FFDACF5B
:10006000E6FF31EC01F0E552E552050EE66ED9509F
:100070000E0FE66E000EDA20E66E04EC01F0E5529B
:10008000E552E552D9500E0FE66E000EDA20E66E0C
:1000900031EC01F0E552E552E8D7720EE15C02E284
:1000A000E16AE552E16EE552E7CFD9FF1200280E72
:1000B000E66E73EC01F0E552000000000000000065
:1000C00000001200140EE66E73EC01F0E55212000F
:1000D000280EE66E73EC01F0E5520000000000000F
:0200E00012000C
:0E00E200060EF66E000EF76E000EF86E0001B0
:1000F0000900F550656F0900F550666F03E165670B
:1001000001D03DD00900F550606F0900F550616FD6
:100110000900F550626F09000900F550E96E090009
:10012000F550EA6E090009000900F550636F0900F7
:10013000F550646F09000900F6CF67F0F7CF68F05B
:10014000F8CF69F060C0F6FF61C0F7FF62C0F8FF4A
:100150000001635302E1645307E00900F550EE6EBD
:100160006307F8E26407F9D767C0F6FF68C0F7FFD6
:1001700069C0F8FF00016507000E665BBFD712007B
:100180000F01939881880F01938A818A12000001E0
:10019000080E6B6F0F0181BACBEF00F062EC00F03C
:1001A0000F0181BACBEF00F068EC00F00F0181AADB
:1001B000D89081BAD88000016A336B2FD4EF00F059
:1001C00068EC00F062EC00F0000000016A511200DF
:1001D0000001FF0EE3CF6AF0090E6B6FD8900F019C
:1001E000F4EF00F000016A330F01D8A08198D8B075
:1001F000818857EC00F000016B2FF2EF00F00F0147
:08020000818857EC00F01200A8
:08020800D9CFE6FFDACFE6FFD3
:10021000E1CFD9FFE2CFDAFFE652E652DF6AFB0E0A
:10022000DB50DF5C16E2C7EC00F0E76E010EE7CFB3
:10023000DBFFFC0EDBCFE9FFFD0EDBCFEAFF010E9B
:10024000DBCFEFFFFC0EDB2AFD0E01E3DB2ADF2A0A
:10025000E6D7E552E552E552E5CFDAFFE7CFD9FF21
:0202600012008A
:0E026200D9CFE6FFDACFE6FFE1CFD9FFE2CF3A
:10027000DAFFFC0EDBCFE9FFFD0EDBCFEAFFEF502C
:10028000E66EE8EC00F0E552FC0EDBCFE9FFDB2A7E
:10029000FD0EDBCFEAFF01E3DB2AEF50EAE1E55296
:0A02A000E5CFDAFFE7CFD9FF120027
:0602AA00000EF36E00EEF1
:1002B00000F0030E01D81200EA6002D0EE6AFCD70B
:0A02C000F350E9601200EE6AFCD76B
:0602CA0012EE00F022EE2E
:1002D00000F0F86A019C71EC00F07EEC01F004EC97
:0602E00000F0FBD7120044
:0A02E600FF0EE350E84E1200000086
:0C02F00000D000D000D0E82EFAD7120099
:0202FC001200EE
:020000040030CA
:0100010009F5
:010003001EDE
:010005008278
:00000001FF
