:020000040000FA
:06000000ECEF03F012001A
:020006000000F8
:08000800956A8C6A1200020ED9
:10001000E66E1AD8E552280EE66E16D8E552010EA5
:10002000E66E12D8E552170EE66E0ED8E5520C0EAB
:10003000E66E0AD8E552060EE66E06D8E552830E45
:10004000E66E02D8E5521200D9CFE6FFE1CFD9FF24
:10005000E652FE0EDB50F00BDF6EDFCFE6FF2AD854
:10006000E552FE0EDB38F00BF00BDF6EDFCFE6FF64
:1000700021D8E552E552E552E7CFD9FF1200D9CF9A
:10008000E6FFE1CFD9FFE652FE0EDB50F00BDF6E4C
:10009000DFCFE6FF23D8E552FE0EDB38F00BF00B86
:1000A000DF6EDFCFE6FF1AD8E552E552E552E7CF23
:1000B000D9FF1200D9CFE6FFE1CFD9FFFE0EDB500A
:1000C0008C6E8C968C840A0EE66EE66A1BD8E5521E
:1000D000E5528C94E552E7CFD9FF1200D9CFE6FF65
:1000E000E1CFD9FFFE0EDB508C6E8C868C840A0E1D
:1000F000E66EE66A07D8E552E5528C94E552E7CF02
:10010000D9FF1200D9CFE6FFE1CFD9FF040EE126D7
:10011000DE6ADD6ADECF10F0DDCF11F0113404E2CB
:1001200010500508000E115426E3020EDB6A030E80
:10013000DB6A020EDBCF10F0030EDBCF11F0FD0EF9
:10014000DBCF12F0FE0EDBCF13F011501318E8AE28
:1001500002D0133404D01250105C1350115806E230
:10016000020EDB2A030E01E3DB2AE3D7DF2A010EAE
:1001700001E3DB2ACFD7040EE15C02E2E16AE5523B
:10018000E16EE552E7CFD9FF12006AC0F6FF6BC0FF
:10019000F7FF0800F5500EE06AC0F6FF6BC0F7FFEE
:1001A0000800F550E66E6BDFE55200016A2B000E89
:1001B0006B23EBD71200D9CFE6FFE1CFD9FFFE0EBC
:1001C000DBCFE6FF5CDFE552E552E7CFD9FF120057
:1001D000D9CFE6FFE1CFD9FF090EE126010EF36E7C
:1001E000020EF3CFDBFFD950FD0FE96EFF0EDA20D0
:1001F000EA6EEE50ED101CE0FD0EDBCFDEFFDBCF34
:10020000DDFFD9CFE9FFDACFEAFF0A0E0B6E0C6AE9
:10021000EECF06F0EDCF07F0C6EC03F006C0EEFF20
:1002200007C0EDFFEE50ED1003E0020EDB2AE9D728
:10023000D950030F106EDACF11F0020EDB500F0110
:100240001024E96E000E1120EA6EEF6AFD0EDBCF7E
:1002500012F0FE0EDBCF13F00A0E0B6E0C6A12C00A
:1002600006F013C007F0C6EC03F002C012F003C0A2
:1002700013F0300E1226000E1322D950030F106E09
:10028000DACF11F0020EDB06DB500F011024E96E0D
:10029000000E1120EA6E12C0EFFFD950FD0FE96E7B
:1002A000FF0EDA20EA6E0A0E0B6E0C6AEECF06F035
:1002B000EDCF07F0C6EC03F006C0EEFF07C0EDFF80
:1002C000EE50ED10C3E1D950030FE66E000EDA20B8
:1002D000E66E0CD8E552E552090EE15C02E2E16AF5
:1002E000E552E16EE552E7CFD9FF1200D9CFE6FF24
:1002F000E1CFD9FFFD0EDBCFE9FFFE0EDBCFEAFF3A
:10030000EF5010E0FD0EDBCFE9FFFE0EDBCFEAFF82
:10031000EF50E66EB4DEE552FD0EDB2AFE0E01E381
:10032000DB2AE8D7E552E7CFD9FF1200D9CFE6FFA5
:10033000E1CFD9FFFE0EDB503C0808E2FE0EDB5099
:10034000C30FD40FE66E80DEE5521ED0FE0EDB50EA
:10035000280808E2FE0EDB50D70F940FE66E74DE1D
:10036000E55212D0FE0EDB50140808E2FE0EDB5000
:10037000EB0FC00FE66E68DEE55206D0FE0EDB0422
:10038000800FE66E61DEE552E552E7CFD9FF12003D
:10039000D9CFE6FFE1CFD9FFFE0EDB50100808E20F
:1003A000FE0EDB50EF0FC00FE66E4EDEE55206D0BC
:1003B000FE0EDB04800FE66E47DEE552E552E7CF26
:1003C000D9FF1200010EE66E3FDEE552800EE66EAA
:1003D0003BDEE55212000F0E926EBD0EC06EC16A7A
:1003E0001200D9CFE6FFE1CFD9FF280EE66EFAEC76
:1003F00003F0E552FE0EDB50040DF350C26EC280D6
:10040000E552E7CFD9FF1200C36AC46AC282C2B202
:10041000FED7C450126E12C013F0126AC35000010E
:100420001210106E13C011F010C0F3FF11C0F4FFD2
:1004300000D01200C36AC46AC282C2B2FED7C350DF
:1004400000D01200D9CFE6FFE1CFD9FFD950FD0F80
:10045000E96EFF0EDA20EA6EEE50ED1012E08B80AE
:10046000280EE66EAFEC03F0E5528B90280EE66E98
:10047000AFEC03F0E552FD0EDB06FE0E01E2DB06FB
:10048000E5D7E552E7CFD9FF1200D9CFE6FFE1CF9C
:10049000D9FF080EE126946A826AB6DDB8DD010E46
:1004A000E66E44DFE55200014A0E6A6F070E6B6F7D
:1004B0006CDE150EE66E3ADFE5520001450E6A6FFE
:1004C000070E6B6F62DE200EE66E30DFE552000134
:1004D000400E6A6F070E6B6F58DE290EE66E26DF40
:1004E000E55200013B0E6A6F070E6B6F4EDE340E55
:1004F000E66E1CDFE5520001360E6A6F070E6B6F69
:1005000044DE69DFE66A6DDFE5527EDF040EF3CF7D
:10051000DBFF050EF4CFDBFF240EE66E07DFE552AE
:10052000040EDBCFE6FF050EDBCFE6FF51DEE55222
:10053000E5520001320E6A6F070E6B6F26DE010E68
:10054000E66E4FDFE55260DF060EF3CFDBFF070EEE
:10055000F4CFDBFF2D0EE66EE9DEE552060EDBCFB3
:10056000E6FF070EDBCFE6FF33DEE552E552000182
:100570002D0E6A6F070E6B6F08DE020EE66E31DF1E
:10058000E55242DFF3CFDEFFF4CFDDFF190EE66E5A
:10059000CDDEE552DECFE6FFDDCFE6FF19DEE55228
:1005A000E55200012D0E6A6F070E6B6FEEDD030E34
:1005B000E66E17DFE55228DF020EF3CFDBFF030EF6
:1005C000F4CFDBFF380EE66EB1DEE552020EDBCF74
:1005D000E6FF030EDBCFE6FFFBDDE552E55200014F
:1005E000260E6A6F070E6B6FD0DDD950040FE96ECF
:1005F000DACFEAFF580ED880EE54020EED5407E22F
:10060000010EE66EE66A1EDFE552E55232D0060EB6
:10061000DBCF10F0070EDBCF11F0580E105C020E8E
:10062000115802E28B8225D0D9CFE9FFDACFEAFF59
:10063000580ED880EE54020EED5407E2020EE66E1C
:10064000E66A00DFE552E55214D0D950020FE96E98
:10065000DACFEAFF580ED880EE54020EED5407E2CE
:10066000030EE66EE66AEEDEE552E55202D08B92AC
:100670008B9048D7080EE15C02E2E16AE552E16E38
:08068000E552E7CFD9FF12009B
:08068800060EF66E000EF76E7F
:10069000000EF86E00010900F550656F0900F55075
:1006A000666F03E1656701D03DD00900F550606FCA
:1006B0000900F550616F0900F550626F09000900EB
:1006C000F550E96E0900F550EA6E090009000900CD
:1006D000F550636F0900F550646F09000900F6CF0B
:1006E00067F0F7CF68F0F8CF69F060C0F6FF61C03F
:1006F000F7FF62C0F8FF0001635302E1645307E0B3
:100700000900F550EE6E6307F8E26407F9D767C099
:10071000F6FF68C0F7FF69C0F8FF00016507000E2B
:06072000665BBFD712006A
:0A07260020202020202000202020A9
:100730002000202020005049523A004C49473A00FE
:100740004741533A004F424A3A00536D6F6B652060
:0E075000446976696E672048656C6D657400BB
:02075E00FF0E8C
:10076000E350156EEF0E01D0F30EE76EE72EB6EFF5
:1007700003F00C0E146EE76AE72EBCEF03F0142EA4
:0C078000BBEF03F0152EB4EF03F01200E5
:04078C00036A026A90
:10079000100EE76ED89006360736023603360B5039
:1007A000025C0C50035805E30B50025E0C50035AD8
:0807B000062AE72EF0D7120023
:0807B800000EF36E00EE00F0EC
:1007C000030E01D81200EA6002D0EE6AFCD7F350A3
:0807D000E9601200EE6AFCD79B
:0807D80012EE00F022EE00F029
:1007E000F86A0F9C44EC03F005EC04F045EC02F0D1
:0407F000FBD7120021
:0C07F400FF0EE350E84E1200000000D0A1
:0A08000000D000D0E82EFAD7120055
:02080A001200DA
:020000040030CA
:0100010009F5
:0100020019E4
:010003001EDE
:010005008278
:010006008178
:00000001FF
