:020000040000FA
:0600000051EF07F01200B1
:020006000000F8
:08000800956A8C6A1200020ED9
:10001000E66E1AD8E552280EE66E16D8E552010EA5
:10002000E66E12D8E552170EE66E0ED8E5520C0EAB
:10003000E66E0AD8E552060EE66E06D8E552830E45
:10004000E66E02D8E5521200D9CFE6FFE1CFD9FF24
:10005000E652FE0EDB50F00BDF6EDFCFE6FF2AD854
:10006000E552FE0EDB38F00BF00BDF6EDFCFE6FF64
:1000700021D8E552E552E552E7CFD9FF1200D9CF9A
:10008000E6FFE1CFD9FFE652FE0EDB50F00BDF6E4C
:10009000DFCFE6FF23D8E552FE0EDB38F00BF00B86
:1000A000DF6EDFCFE6FF1AD8E552E552E552E7CF23
:1000B000D9FF1200D9CFE6FFE1CFD9FFFE0EDB500A
:1000C0008C6E8C968C840A0EE66EE66A1BD8E5521E
:1000D000E5528C94E552E7CFD9FF1200D9CFE6FF65
:1000E000E1CFD9FFFE0EDB508C6E8C868C840A0E1D
:1000F000E66EE66A07D8E552E5528C94E552E7CF02
:10010000D9FF1200D9CFE6FFE1CFD9FF040EE126D7
:10011000DE6ADD6ADECF14F0DDCF15F0153404E2BF
:1001200014500508000E155426E3020EDB6A030E78
:10013000DB6A020EDBCF14F0030EDBCF15F0FD0EF1
:10014000DBCF16F0FE0EDBCF17F015501718E8AE18
:1001500002D0173404D01650145C1750155806E21C
:10016000020EDB2A030E01E3DB2AE3D7DF2A010EAE
:1001700001E3DB2ACFD7040EE15C02E2E16AE5523B
:10018000E16EE552E7CFD9FF12006AC0F6FF6BC0FF
:10019000F7FF0800F5500EE06AC0F6FF6BC0F7FFEE
:1001A0000800F550E66E6BDFE55200016A2B000E89
:1001B0006B23EBD71200D9CFE6FFE1CFD9FFFE0EBC
:1001C000DBCFE6FF5CDFE552E552E7CFD9FF120057
:1001D000D9CFE6FFE1CFD9FF090EE126010EF36E7C
:1001E000020EF3CFDBFFD950FD0FE96EFF0EDA20D0
:1001F000EA6EEE50ED101CE0FD0EDBCFDEFFDBCF34
:10020000DDFFD9CFE9FFDACFEAFF0A0E0B6E0C6AE9
:10021000EECF06F0EDCF07F02BEC07F006C0EEFFB7
:1002200007C0EDFFEE50ED1003E0020EDB2AE9D728
:10023000D950030F146EDACF15F0020EDB500F0108
:100240001424E96E000E1520EA6EEF6AFD0EDBCF76
:1002500016F0FE0EDBCF17F00A0E0B6E0C6A16C0FE
:1002600006F017C007F02BEC07F002C016F003C031
:1002700017F0300E1626000E1722D950030F146EF9
:10028000DACF15F0020EDB06DB500F011424E96E05
:10029000000E1520EA6E16C0EFFFD950FD0FE96E73
:1002A000FF0EDA20EA6E0A0E0B6E0C6AEECF06F035
:1002B000EDCF07F02BEC07F006C0EEFF07C0EDFF17
:1002C000EE50ED10C3E1D950030FE66E000EDA20B8
:1002D000E66E0CD8E552E552090EE15C02E2E16AF5
:1002E000E552E16EE552E7CFD9FF1200D9CFE6FF24
:1002F000E1CFD9FFFD0EDBCFE9FFFE0EDBCFEAFF3A
:10030000EF5010E0FD0EDBCFE9FFFE0EDBCFEAFF82
:10031000EF50E66EB4DEE552FD0EDB2AFE0E01E381
:10032000DB2AE8D7E552E7CFD9FF1200D9CFE6FFA5
:10033000E1CFD9FFFE0EDB503C0808E2FE0EDB5099
:10034000C30FD40FE66E80DEE5521ED0FE0EDB50EA
:10035000280808E2FE0EDB50D70F940FE66E74DE1D
:10036000E55212D0FE0EDB50140808E2FE0EDB5000
:10037000EB0FC00FE66E68DEE55206D0FE0EDB0422
:10038000800FE66E61DEE552E552E7CFD9FF12003D
:10039000D9CFE6FFE1CFD9FFFE0EDB50100808E20F
:1003A000FE0EDB50EF0FC00FE66E4EDEE55206D0BC
:1003B000FE0EDB04800FE66E47DEE552E552E7CF26
:1003C000D9FF1200010EE66E3FDEE552800EE66EAA
:1003D0003BDEE55212000F0E926EBD0EC06EC16A7A
:1003E0001200D9CFE6FFE1CFD9FF280EE66E5FEC11
:1003F00007F0E552FE0EDB50040DF350C26EC280D2
:10040000E552E7CFD9FF1200C36AC46AC282C2B202
:10041000FED7C450166E16C017F0166AC3500001FE
:100420001610146E17C015F014C0F3FF15C0F4FFBA
:1004300000D01200C36AC46AC282C2B2FED7C350DF
:1004400000D01200D9CFE6FFE1CFD9FFE652100E5F
:10045000DF6EF28CF28CF28E948E949C640E146E8D
:10046000156AFD0EDBCF06F0FE0EDBCF07F014C0E1
:100470000BF015C00CF02BEC07F0CDEC05F0E2EC26
:1004800005F0FD0E06C0DBFFFE0E07C0DBFFDF50F0
:10049000166E176AC60E1702F3CF17F0090E160272
:1004A000F3501726C60E1602F3CF16F0F450172697
:1004B00016C006F017C007F0FD0EDBCF0BF0FE0EE6
:1004C000DBCF0CF02BEC07F006C014F007C015F0E2
:1004D0001406000E155AFD0E14C0DBFFFE0E15C0EB
:1004E000DBFFFD0EDB50AF6EFD0EDBCF14F0FE0E1A
:1004F000DBCF15F015C014F0156A1450B06E240E41
:10050000AC6E900EAB6E080EB86EE552E552E7CFBA
:10051000D9FF12006CC0F6FF6DC0F7FF0800F55060
:100520000EE06CC0F6FF6DC0F7FF0800F550E66EF8
:10053000B5D8E55200016C2B000E6D23EBD71200ED
:10054000D9CFE6FFE1CFD9FFFD0EDBCFE9FFFE0EED
:10055000DBCFEAFFEF5010E0FD0EDBCFE9FFFE0E30
:10056000DBCFEAFFEF50E66E99D8E552FD0EDB2AAD
:10057000FE0E01E3DB2AE8D7E552E7CFD9FF1200F0
:10058000D9CFE6FFE1CFD9FF090EE126010EF36EC8
:10059000020EF3CFDBFFD950FD0FE96EFF0EDA201C
:1005A000EA6EEE50ED101CE0FD0EDBCFDEFFDBCF80
:1005B000DDFFD9CFE9FFDACFEAFF0A0E0B6E0C6A36
:1005C000EECF06F0EDCF07F02BEC07F006C0EEFF04
:1005D00007C0EDFFEE50ED1003E0020EDB2AE9D775
:1005E000D950030F146EDACF15F0020EDB500F0155
:1005F0001424E96E000E1520EA6EEF6AFD0EDBCFC3
:1006000016F0FE0EDBCF17F00A0E0B6E0C6A16C04A
:1006100006F017C007F02BEC07F002C016F003C07D
:1006200017F0300E1626000E1722D950030F146E45
:10063000DACF15F0020EDB06DB500F011424E96E51
:10064000000E1520EA6E16C0EFFFD950FD0FE96EBF
:10065000FF0EDA20EA6E0A0E0B6E0C6AEECF06F081
:10066000EDCF07F02BEC07F006C0EEFF07C0EDFF63
:10067000EE50ED10C3E1D950030FE66E000EDA2004
:10068000E66E5EDFE552E552090EE15C02E2E16AE8
:10069000E552E16EE552E7CFD9FF1200D9CFE6FF70
:1006A000E1CFD9FF9EA8FED7FE0EDB50AD6EE5521E
:1006B000E7CFD9FF1200ABA207D0AB98280EE66EA9
:1006C0005FEC07F0E552AB889EAAFED7AE5000D093
:1006D0001200D9CFE6FFE1CFD9FF130EE1260E0EAF
:1006E000DB6A0F0EDB6A100EDB6A110EDB6A600E2E
:1006F000D36E9B8C936A8A948A966DDE800EE66E2A
:10070000250EE66E9FDEE552E5527EDC80DC5ADE89
:10071000010EE66E3DDEE5520001190E6A6F0E0E07
:100720006B6F33DD0E0EDB6A0F0EDB6A9EAA35D0CF
:100730009E9A010EF36E0E0EF3CFDBFF0F0EDB6AF7
:10074000100EDB2A110E01E3DB2A010EE66E20DE1D
:10075000E5520001130E6A6F0E0E6B6F16DD090E67
:10076000E66E16DEE55200010D0E6A6F0E0E6B6F1F
:100770000CDD110EE66E0CDEE5520001070E6A6F0D
:100780000E0E6B6F02DD190EE66E02DEE552000101
:10079000010E6A6F0E0E6B6FF8DCD9500E0FE96E0A
:1007A000DACFEAFF010EEE1801E1ED5001E0EAD1E7
:1007B000E66A17DEE55228DE060EF3CFDBFF070EF2
:1007C000F4CFDBFFE66A14EC07F0E552010EE66EAB
:1007D00008DEE55219DE080EF3CFDBFF090EF4CF79
:1007E000DBFFE66A14EC07F0E552020EE66EF9DD77
:1007F000E5520ADE0A0EF3CFDBFF0B0EF4CFDBFF70
:10080000E66A14EC07F0E552030EE66EEADDE55207
:10081000FBDD0C0EF3CFDBFF0D0EF4CFDBFFE66A42
:1008200014EC07F0E552060EDBCF14F0070EDBCF19
:1008300015F0153404E21450BC08020E155411E2F0
:10084000060EE66EA5DDE5520001FF0E6A6F0D0E85
:100850006B6F9BDC0001FC0E6A6F0D0E6B6F95DCFD
:1008600010D0060EE66E94DDE5520001F90E6A6FB7
:100870000D0E6B6F8ADC0001FC0E6A6F0D0E6B6F44
:1008800084DC080EDBCF14F0090EDBCF15F0153435
:1008900004E21450F408010E155411E20E0EE66E37
:1008A00077DDE5520001FF0E6A6F0D0E6B6F6DDC98
:1008B0000001F70E6A6F0D0E6B6F67DC10D00E0E25
:1008C000E66E66DDE5520001F90E6A6F0D0E6B6F84
:1008D0005CDC0001F70E6A6F0D0E6B6F56DC0A0EC2
:1008E000DBCF14F00B0EDBCF15F0153404E21450FF
:1008F000BC08020E155411E2160EE66E49DDE552F3
:100900000001FF0E6A6F0D0E6B6F3FDC0001F70EEA
:100910006A6F0D0E6B6F39DC10D0160EE66E38DD87
:10092000E5520001F90E6A6F0D0E6B6F2EDC0001AF
:10093000F70E6A6F0D0E6B6F28DC0C0EDBCF14F018
:100940000D0EDBCF15F0153404E21450BC08020E76
:10095000155411E21E0EE66E1BDDE5520001FF0E7E
:100960006A6F0D0E6B6F11DC0001F70E6A6F0D0ED2
:100970006B6F0BDC12D01E0EE66E0ADDE552000135
:10098000F90E6A6F0D0E6B6FC5EC00F00001F70EEB
:100990006A6F0D0E6B6FC5EC00F0060EDBCF14F026
:1009A000070EDBCF15F0D890155004E6BC0E145C92
:1009B000020E15582CE2080EDBCF16F0090EDBCF25
:1009C00017F0D890175004E68A0E165C020E1758DE
:1009D0001EE20A0EDBCF18F00B0EDBCF19F0D89019
:1009E000195004E6BC0E185C020E195810E20C0EE9
:1009F000DBCF1AF00D0EDBCF1BF0D8901B5004E6B6
:100A0000BC0E1A5C020E1B5802E28A8001D08A904A
:100A1000060EDBCF14F0070EDBCF15F0153404E221
:100A20001450BC08020E155428E3080EDBCF16F054
:100A3000090EDBCF17F0173404E216508A08020EB5
:100A400017541BE30A0EDBCF18F00B0EDBCF19F0A7
:100A5000193404E21850BC08020E19540EE30C0EAF
:100A6000DBCF1AF00D0EDBCF1BF01B3404E21A5063
:100A7000BC08020E1B5401E385D0D950100FE96E5B
:100A8000DACFEAFF010EEE1801E1ED5001E07AD075
:100A9000290EE66E4BDCE5520001EA0E6A6F0D0E80
:100AA0006B6FC5EC00F08A848A96640EE66E14ECD7
:100AB00007F0E552640EE66E14EC07F0E5528A94F6
:100AC0008A96640EE66E14EC07F0E552640EE66E4C
:100AD00014EC07F0E552640EE66E14EC07F0E552F4
:100AE000640EE66E14EC07F0E552640EE66E14EC4C
:100AF00007F0E552640EE66E14EC07F0E552640E62
:100B0000E66E14EC07F0E552640EE66E14EC07F0A6
:100B1000E552290EE66E0ADCE5520001DC0E6A6F32
:100B20000D0E6B6FC5EC00F08A948A86640EE66E3B
:100B300014EC07F0E552640EE66E14EC07F0E55293
:100B40008A948A96640EE66E14EC07F0E552640E01
:100B5000E66E14EC07F0E552640EE66E14EC07F056
:100B6000E552640EE66E14EC07F0E552290EE66ECF
:100B700096EC01F0E5520001CC0E6A6F0D0E6B6F22
:100B8000C5EC00F0CFD5130EE15C02E2E16AE5525C
:0A0B9000E16EE552E7CFD9FF120035
:060B9A000F9E08D00F9E23
:100BA00007AE05D0066C071EE86A07220F8E07C045
:100BB00001F006C000F0136A126A8E0E026E036A1C
:100BC0002DEF06F00F6A69EC06F00FB6ECEF05F0BA
:100BD0000FA20ED00FB405D07F0E076EFF0E066E6B
:100BE0001FD0800E076E066A1BD0076A066A18D0EF
:100BF0000FB0FBD78F0E0860EDD77E0E0864F5D7D7
:100C00008E0E085C05E0D89007320632082AF8D725
:100C10000FA406D0066C071EE86A072207AEE5D7C8
:100C200012007F0E086EFF0E076E066E056E120034
:100C30007F0E0FBEFF0E086E02D07F0E086E800E74
:100C4000076E066A056AF3D70FAE04D0800E086EF1
:100C5000076AF7D7086A076AF4D701500010131023
:100C60001210F8E003BEF0D701BE0CD00250031002
:100C7000EBE0D89012361336003601360206D8A0C3
:100C80000306F2D70350D4E10228D2E012AE11D00D
:100C90007F0E121402E113A00CD0132AE86A00227E
:100CA000012207E3D880013200321332022A0228DF
:100CB000BFE00250C9E013C005F000C006F00134E7
:100CC000076E0230086E0732089E0FBE088E17EFBF
:100CD00006F00736083602E30F840F7E06E10F8028
:100CE000086A076A066A056A1200082803E0D880C5
:100CF00007321200D890073202E10F8212000F86ED
:100D000012000C360D3602E30F8C0F7E06E10F88C1
:100D10000D6A0C6A0B6A0A6A12000D2803E0D8807B
:0E0D20000C321200D8900C32EAE10F8A120059
:020D2E00060EAF
:100D3000F66E000EF76E000EF86E00010900F55019
:100D4000656F0900F550666F03E1656701D03DD01E
:100D50000900F550606F0900F550616F0900F5500A
:100D6000626F09000900F550E96E0900F550EA6E5E
:100D7000090009000900F550636F0900F550646F20
:100D800009000900F6CF67F0F7CF68F0F8CF69F0F7
:100D900060C0F6FF61C0F7FF62C0F8FF0001635357
:100DA00002E1645307E00900F550EE6E6307F8E2D4
:100DB0006407F9D767C0F6FF68C0F7FF69C0F8FF9E
:0C0DC00000016507000E665BBFD7120043
:040DCC0020202020A3
:100DD0002020202020202020202020004761746532
:100DE00020636C6F73696E67200047617465206FC4
:100DF00070656E696E670020004E41002020004142
:100E0000004C4F54343A004C4F54333A004C4F543A
:100E1000323A004C4F54313A00536D617274205095
:070E200061726B696E67004F
:080E2800FF0EE3501D6EEF0EFA
:100E300001D0F30EE76EE72E1BEF07F00C0E1C6ED1
:100E4000E76AE72E21EF07F01C2E20EF07F01D2E9A
:060E500019EF07F012008B
:0A0E5600036A026A100EE76ED890DE
:100E600006360736023603360B50025C0C50035828
:100E700005E30B50025E0C50035A062AE72EF0D70A
:020E800012005E
:0E0E8200000EF36E00EE00F0030E01D8120019
:100E9000EA6002D0EE6AFCD7F350E9601200EE6A15
:020EA000FCD77D
:0E0EA20012EE00F022EE00F0F86A0F9C97ECC2
:0E0EB00006F06AEC07F069EC03F0FBD71200C5
:020EBE00FF0E25
:100EC000E350E84E1200000000D000D000D0E82E21
:040ED000FAD712003B
:020ED40012000A
:020000040030CA
:0100010009F5
:0100020019E4
:010003001EDE
:010005008278
:010006008178
:00000001FF
