:040000000CEF00F011
:10000800FACF01F0FBCF02F0E9CF03F00EED00F0DC
:100018007DEF00F00600EACF04F0E1CF05F0E2CF73
:1000280006F0D9CF07F0DACF08F0F3CF09F0F4CF14
:100038000AF0F6CF0BF0F7CF0CF0F8CF0DF0F5CFB4
:100048000EF0F2A203D08078897AF2920EC0F5FF02
:100058000DC0F8FF0CC0F7FF0BC0F6FF0AC0F4FF95
:1000680009C0F3FF08C0DAFF07C0D9FF06C0E2FFE6
:1000780005C0E1FF04C0EAFF03C0E9FF02C0FBFFBF
:1000880001C0FAFF1100000E106E000E0F6E105026
:10009800800A800F640ED8B40F5CD8B012D0000E5E
:1000A800126E000E116E1250800A800F020ED8B424
:1000B800115CD8B003D0114A122AF5D70F4A102A7A
:1000C800E6D71200080EC16E000E926E010E936EF6
:1000D800000E896EF28EF288F292F19E809A898AD9
:1000E80047EC00F0899A47EC00F0F2A2F8D7808636
:0800F800F6D7000166EF00F0ED
:020000040020DA
:08000000FFFFFFFFFFFFFFFF00
:020000040030CA
:0E000000FF08191EFF0281FF0FC00FE00F4026
:00000001FF
