:020000040000FA
:0600000005EF03F0120001
:020006000000F8
:08000800956A8C6A1200020ED9
:10001000E66E1AD8E552280EE66E16D8E552010EA5
:10002000E66E12D8E552170EE66E0ED8E5520C0EAB
:10003000E66E0AD8E552060EE66E06D8E552830E45
:10004000E66E02D8E5521200D9CFE6FFE1CFD9FF24
:10005000E652FE0EDB50F00BDF6EDFCFE6FF2AD854
:10006000E552FE0EDB38F00BF00BDF6EDFCFE6FF64
:1000700021D8E552E552E552E7CFD9FF1200D9CF9A
:10008000E6FFE1CFD9FFE652FE0EDB50F00BDF6E4C
:10009000DFCFE6FF23D8E552FE0EDB38F00BF00B86
:1000A000DF6EDFCFE6FF1AD8E552E552E552E7CF23
:1000B000D9FF1200D9CFE6FFE1CFD9FFFE0EDB500A
:1000C0008C6E8C968C840A0EE66EE66A1BD8E5521E
:1000D000E5528C94E552E7CFD9FF1200D9CFE6FF65
:1000E000E1CFD9FFFE0EDB508C6E8C868C840A0E1D
:1000F000E66EE66A07D8E552E5528C94E552E7CF02
:10010000D9FF1200D9CFE6FFE1CFD9FF040EE126D7
:10011000DE6ADD6ADECF10F0DDCF11F0113404E2CB
:1001200010500508000E115426E3020EDB6A030E80
:10013000DB6A020EDBCF10F0030EDBCF11F0FD0EF9
:10014000DBCF12F0FE0EDBCF13F011501318E8AE28
:1001500002D0133404D01250105C1350115806E230
:10016000020EDB2A030E01E3DB2AE3D7DF2A010EAE
:1001700001E3DB2ACFD7040EE15C02E2E16AE5523B
:10018000E16EE552E7CFD9FF12006AC0F6FF6BC0FF
:10019000F7FF0800F5500EE06AC0F6FF6BC0F7FFEE
:1001A0000800F550E66E6BDFE55200016A2B000E89
:1001B0006B23EBD71200D9CFE6FFE1CFD9FFFE0EBC
:1001C000DBCFE6FF5CDFE552E552E7CFD9FF120057
:1001D000D9CFE6FFE1CFD9FF090EE126010EF36E7C
:1001E000020EF3CFDBFFD950FD0FE96EFF0EDA20D0
:1001F000EA6EEE50ED101CE0FD0EDBCFDEFFDBCF34
:10020000DDFFD9CFE9FFDACFEAFF0A0E0B6E0C6AE9
:10021000EECF06F0EDCF07F0CEEC02F006C0EEFF19
:1002200007C0EDFFEE50ED1003E0020EDB2AE9D728
:10023000D950030F106EDACF11F0020EDB500F0110
:100240001024E96E000E1120EA6EEF6AFD0EDBCF7E
:1002500012F0FE0EDBCF13F00A0E0B6E0C6A12C00A
:1002600006F013C007F0CEEC02F002C012F003C09B
:1002700013F0300E1226000E1322D950030F106E09
:10028000DACF11F0020EDB06DB500F011024E96E0D
:10029000000E1120EA6E12C0EFFFD950FD0FE96E7B
:1002A000FF0EDA20EA6E0A0E0B6E0C6AEECF06F035
:1002B000EDCF07F0CEEC02F006C0EEFF07C0EDFF79
:1002C000EE50ED10C3E1D950030FE66E000EDA20B8
:1002D000E66E0CD8E552E552090EE15C02E2E16AF5
:1002E000E552E16EE552E7CFD9FF1200D9CFE6FF24
:1002F000E1CFD9FFFD0EDBCFE9FFFE0EDBCFEAFF3A
:10030000EF5010E0FD0EDBCFE9FFFE0EDBCFEAFF82
:10031000EF50E66EB4DEE552FD0EDB2AFE0E01E381
:10032000DB2AE8D7E552E7CFD9FF1200D9CFE6FFA5
:10033000E1CFD9FFFE0EDB503C0808E2FE0EDB5099
:10034000C30FD40FE66E80DEE5521ED0FE0EDB50EA
:10035000280808E2FE0EDB50D70F940FE66E74DE1D
:10036000E55212D0FE0EDB50140808E2FE0EDB5000
:10037000EB0FC00FE66E68DEE55206D0FE0EDB0422
:10038000800FE66E61DEE552E552E7CFD9FF12003D
:10039000D9CFE6FFE1CFD9FFFE0EDB50100808E20F
:1003A000FE0EDB50EF0FC00FE66E4EDEE55206D0BC
:1003B000FE0EDB04800FE66E47DEE552E552E7CF26
:1003C000D9FF1200010EE66E3FDEE552800EE66EAA
:1003D0003BDEE55212000F0E926EBD0EC06EC16A7A
:1003E0001200D9CFE6FFE1CFD9FF280EE66E13EC5D
:1003F00003F0E552FE0EDB50040DF350C26EC280D6
:10040000E552E7CFD9FF1200C36AC46AC282C2B202
:10041000FED7C450126E12C013F0126AC35000010E
:100420001210106E13C011F010C0F3FF11C0F4FFD2
:1004300000D01200C36AC46AC282C2B2FED7C350DF
:1004400000D01200D9CFE6FFE1CFD9FF020EE1269E
:10045000946A826AD9DDDBDD010EE66E99DFE55232
:100460000001D90E6A6F050E6B6F8FDE110EE66EFE
:100470008FDFE5520001CF0E6A6F050E6B6F85DED0
:10048000AADF8B808B92010EE66EABDFE552BCDFFC
:10049000F3CFDEFFF4CFDDFF1A0EE66E79DFE55213
:1004A000DECFE6FFDDCFE6FF93DEE552E5521A0E22
:1004B000E66E6EDFE5520001C80E6A6F050E6B6FC7
:1004C00064DEDECF10F0DDCF11F0D890115004E6DD
:1004D000C80E105C000E115804E28B808B828B8456
:1004E00003D08B808B948B92CED7020EE15C02E21C
:0E04F000E16AE552E16EE552E7CFD9FF120056
:0204FE00060EE8
:10050000F66E000EF76E000EF86E00010900F55051
:10051000656F0900F550666F03E1656701D03DD056
:100520000900F550606F0900F550616F0900F55042
:10053000626F09000900F550E96E0900F550EA6E96
:10054000090009000900F550636F0900F550646F58
:1005500009000900F6CF67F0F7CF68F0F8CF69F02F
:1005600060C0F6FF61C0F7FF62C0F8FF000163538F
:1005700002E1645307E00900F550EE6E6307F8E20C
:100580006407F9D767C0F6FF68C0F7FF69C0F8FFD6
:0C05900000016507000E665BBFD712007B
:04059C00036A026A82
:1005A000100EE76ED89006360736023603360B502B
:1005B000025C0C50035805E30B50025E0C50035ACA
:0805C000062AE72EF0D7120015
:0805C800202020202020004427
:1005D000495354414E43453A00436F617374616C13
:0905E000204E6574776F726B0008
:0605EA00000EF36E00EEAE
:1005F00000F0030E01D81200EA6002D0EE6AFCD7C8
:0A060000F350E9601200EE6AFCD727
:06060A0012EE00F022EEEA
:1006100000F0F86A0F9C7FEC02F01EEC03F022EC75
:0606200002F0FBD71200FE
:0A062600FF0EE350E84E1200000042
:0C06300000D000D000D0E82EFAD7120055
:02063C001200AA
:020000040030CA
:0100010009F5
:0100020019E4
:010003001EDE
:010005008278
:010006008178
:00000001FF
