:020000040000FA
:06000000D1EF00F0120038
:020006000000F8
:080008000F0E926EBD0EC06EDA
:10001000C16A1200D9CFE6FFE1CFD9FF280EE66E04
:10002000DFEC00F0E552FE0EDB50040DF350C26E23
:10003000C280E552E7CFD9FF1200C36AC46AC28208
:10004000C2B2FED7C450026E02C003F0026AC350AF
:1000500000010210006E03C001F000C0F3FF01C0F8
:10006000F4FF00D01200C36AC46AC282C2B2FED7D3
:10007000C35000D012009594929AC6DF010EE66E2E
:10008000C9DFE552DADFF3CF6CF0F4CF6DF0897A97
:100090008C746CC0E6FF6DC0E6FF04D8E552E552F3
:1000A000F1D71200D9CFE6FFE1CFD9FF00016A6B8B
:1000B0006B6BFD0EDBCF00F0FE0EDBCF01F06B5162
:1000C0000118E8AE02D0013404D000506A5D01503E
:1000D0006B5904E26A2B000E6B23EBD7E552E7CF96
:0400E000D9FF120032
:0C00E400060EF66E000EF76E000EF86EB1
:1000F00000010900F550656F0900F550666F03E1D6
:10010000656701D03DD00900F550606F0900F550DA
:10011000616F0900F550626F09000900F550E96E42
:100120000900F550EA6E090009000900F550636FF7
:100130000900F550646F09000900F6CF67F0F7CFAA
:1001400068F0F8CF69F060C0F6FF61C0F7FF62C0E9
:10015000F8FF0001635302E1645307E00900F55022
:10016000EE6E6307F8E26407F9D767C0F6FF68C070
:10017000F7FF69C0F8FF00016507000E665BBFD797
:0201800012006B
:0E018200000EF36E00EE00F0030E01D8120026
:10019000EA6002D0EE6AFCD7F350E9601200EE6A22
:0201A000FCD78A
:0E01A20012EE00F022EE00F0F86A059C72ECFE
:0E01B00000F0EAEC00F03BEC00F0FBD7120090
:0201BE00FF0E32
:1001C000E350E84E1200000000D000D000D0E82E2E
:0401D000FAD7120048
:0201D400120017
:020000040030CA
:0100010008F6
:010003001EDE
:00000001FF
