:020000040000FA
:0600000092EF00F0120077
:020006000000F8
:060008006BEF00F0120096
:02000E001200DE
:0600180079EF00F0120078
:02001E00060ECC
:10002000F66E000EF76E000EF86E00010900F55036
:10003000656F0900F550666F03E1656701D03DD03B
:100040000900F550606F0900F550616F0900F55027
:10005000626F09000900F550E96E0900F550EA6E7B
:10006000090009000900F550636F0900F550646F3D
:1000700009000900F6CF67F0F7CF68F0F8CF69F014
:1000800060C0F6FF61C0F7FF62C0F8FF0001635374
:1000900002E1645307E00900F550EE6E6307F8E2F1
:1000A0006407F9D767C0F6FF68C0F7FF69C0F8FFBB
:0C00B00000016507000E665BBFD7120060
:0400BC00F292F28842
:1000C000F18CF19EC190956A93808C6AD08EF28EED
:1000D000F28CFFD71200DACFE4FFE2CFDAFFE6526C
:1000E000F2A203D0010E8C6EF292E552E5CFDAFF58
:1000F0001100DACFE4FFE2CFDAFFE652E552E5CFB6
:04010000DAFF110011
:0C010400000EF36E00EE00F0030E01D8B8
:100110001200EA6002D0EE6AFCD7F350E9601200E8
:04012000EE6AFCD7B0
:0C01240012EE00F022EE00F0F86A019CE0
:100130000FEC00F007EC00F05EEC00F0FBD71200D3
:020000040030CA
:0100010008F6
:010003001EDE
:00000001FF
