:020000040000FA
:060000007EEF00F012008B
:020006000000F8
:0600080061EF00F01200A0
:02000E00060EDC
:10001000F66E000EF76E000EF86E00010900F55046
:10002000656F0900F550666F03E1656701D03DD04B
:100030000900F550606F0900F550616F0900F55037
:10004000626F09000900F550E96E0900F550EA6E8B
:10005000090009000900F550636F0900F550646F4D
:1000600009000900F6CF67F0F7CF68F0F8CF69F024
:1000700060C0F6FF61C0F7FF62C0F8FF0001635384
:1000800002E1645307E00900F550EE6E6307F8E201
:100090006407F9D767C0F6FF68C0F7FF69C0F8FFCB
:0C00A00000016507000E665BBFD7120070
:0400AC00938E95900A
:1000B000F19CF280F286F290F28EF180D08EFFD722
:1000C0001200DACFE4FFE2CFDAFFE652F2A002D06C
:0C00D0008C70F290E552E5CFDAFF1100D1
:0400DC00000EF36EB1
:1000E00000EE00F0030E01D81200EA6002D0EE6AC2
:0C00F000FCD7F350E9601200EE6AFCD768
:0400FC0012EE00F010
:1001000022EE00F0F86A019C07EC00F08CEC00F0A5
:0801100056EC00F0FBD71200D1
:020118001200D3
:00000001FF
