:020000040000FA
:060000002DEF06F01200D6
:0A00060001008E0C0000A0000000B5
:040010000C000000E0
:0C001400956A8C6A1200020EE66E1AD883
:10002000E552280EE66E16D8E552010EE66E12D89D
:10003000E552170EE66E0ED8E5520C0EE66E0AD8A3
:10004000E552060EE66E06D8E552830EE66E02D83D
:10005000E5521200D9CFE6FFE1CFD9FFE652FE0EFE
:10006000DB50F00BDF6EDFCFE6FF2AD8E552FE0E45
:10007000DB38F00BF00BDF6EDFCFE6FF21D8E55267
:10008000E552E552E7CFD9FF1200D9CFE6FFE1CF25
:10009000D9FFE652FE0EDB50F00BDF6EDFCFE6FF3E
:1000A00023D8E552FE0EDB38F00BF00BDF6EDFCF0E
:1000B000E6FF1AD8E552E552E552E7CFD9FF120024
:1000C000D9CFE6FFE1CFD9FFFE0EDB508C6E8C96C8
:1000D0008C840A0EE66EE66A1BD8E552E5528C94D3
:1000E000E552E7CFD9FF1200D9CFE6FFE1CFD9FF24
:1000F000FE0EDB508C6E8C868C840A0EE66EE66AF1
:1001000007D8E552E5528C94E552E7CFD9FF1200AB
:10011000D9CFE6FFE1CFD9FF040EE126DE6ADD6A22
:10012000DECF14F0DDCF15F0153404E214500508CD
:10013000000E155426E3020EDB6A030EDB6A020E84
:10014000DBCF14F0030EDBCF15F0FD0EDBCF16F086
:10015000FE0EDBCF17F015501718E8AE02D017349B
:1001600004D01650145C1750155806E2020EDB2A14
:10017000030E01E3DB2AE3D7DF2A010E01E3DB2ACA
:10018000CFD7040EE15C02E2E16AE552E16EE5528E
:10019000E7CFD9FF120060C0F6FF61C0F7FF08008B
:1001A000F5500EE060C0F6FF61C0F7FF0800F550A3
:1001B000E66E6BDFE5520001602B000E6123EBD78A
:1001C0001200D9CFE6FFE1CFD9FFFE0EDBCFE6FF6D
:1001D0005CDFE552E552E7CFD9FF1200D9CFE6FF49
:1001E000E1CFD9FF090EE126010EF36E020EF3CF27
:1001F000DBFFD950FD0FE96EFF0EDA20EA6EEE50FC
:10020000ED101CE0FD0EDBCFDEFFDBCFDDFFD9CF35
:10021000E9FFDACFEAFF0A0E0B6E0C6AEECF06F0AA
:10022000EDCF07F007EC06F006C0EEFF07C0EDFFCC
:10023000EE50ED1003E0020EDB2AE9D7D950030F90
:10024000146EDACF15F0020EDB500F011424E96EA4
:10025000000E1520EA6EEF6AFD0EDBCF16F0FE0EE3
:10026000DBCF17F00A0E0B6E0C6A16C006F017C033
:1002700007F007EC06F002C016F003C017F0300ECE
:100280001626000E1722D950030F146EDACF15F080
:10029000020EDB06DB500F011424E96E000E152060
:1002A000EA6E16C0EFFFD950FD0FE96EFF0EDA209F
:1002B000EA6E0A0E0B6E0C6AEECF06F0EDCF07F079
:1002C00007EC06F006C0EEFF07C0EDFFEE50ED10A4
:1002D000C3E1D950030FE66E000EDA20E66E0CD8AB
:1002E000E552E552090EE15C02E2E16AE552E16E97
:1002F000E552E7CFD9FF1200D9CFE6FFE1CFD9FF12
:10030000FD0EDBCFE9FFFE0EDBCFEAFFEF5010E082
:10031000FD0EDBCFE9FFFE0EDBCFEAFFEF50E66E0E
:10032000B4DEE552FD0EDB2AFE0E01E3DB2AE8D740
:10033000E552E7CFD9FF1200D9CFE6FFE1CFD9FFD1
:10034000FE0EDB503C0808E2FE0EDB50C30FD40F5C
:10035000E66E80DEE5521ED0FE0EDB50280808E275
:10036000FE0EDB50D70F940FE66E74DEE55212D00E
:10037000FE0EDB50140808E2FE0EDB50EB0FC00F40
:10038000E66E68DEE55206D0FE0EDB04800FE66EF8
:1003900061DEE552E552E7CFD9FF1200D9CFE6FF83
:1003A000E1CFD9FFFE0EDB50100808E2FE0EDB5055
:1003B000EF0FC00FE66E4EDEE55206D0FE0EDB04F8
:1003C000800FE66E47DEE552E552E7CFD9FF120017
:1003D000010EE66E3FDEE552800EE66E3BDEE55234
:1003E00012000F0E926EBD0EC06EC16A1200D9CF00
:1003F000E6FFE1CFD9FF280EE66E3BEC06F0E552B2
:10040000FE0EDB50040DF350C26EC280E552E7CF02
:10041000D9FF1200C36AC46AC282C2B2FED7C450F6
:10042000166E16C017F0166AC35000011610146E2F
:1004300017C015F014C0F3FF15C0F4FF00D0120070
:10044000C36AC46AC282C2B2FED7C35000D01200CF
:10045000D9CFE6FFE1CFD9FFE652100EDF6EF28C66
:10046000F28CF28E948E949C640E146E156AFD0EBE
:10047000DBCF06F0FE0EDBCF07F014C00BF015C08B
:100480000CF007EC06F054EC04F069EC04F0FD0EFF
:1004900006C0DBFFFE0E07C0DBFFDF50166E176ADB
:1004A000C60E1702F3CF17F0090E1602F3501726E7
:1004B000C60E1602F3CF16F0F450172616C006F03B
:1004C00017C007F0FD0EDBCF0BF0FE0EDBCF0CF0FC
:1004D00007EC06F006C014F007C015F01406000E75
:1004E000155AFD0E14C0DBFFFE0E15C0DBFFFD0E1E
:1004F000DB50AF6EFD0EDBCF14F0FE0EDBCF15F040
:1005000015C014F0156A1450B06E240EAC6E900E27
:10051000AB6E080EB86EE552E552E7CFD9FF120078
:1005200062C0F6FF63C0F7FF0800F5500EE062C03E
:10053000F6FF63C0F7FF0800F550E66EB5D8E55248
:100540000001622B000E6323EBD71200D9CFE6FF28
:10055000E1CFD9FFFD0EDBCFE9FFFE0EDBCFEAFFD7
:10056000EF5010E0FD0EDBCFE9FFFE0EDBCFEAFF20
:10057000EF50E66E99D8E552FD0EDB2AFE0E01E340
:10058000DB2AE8D7E552E7CFD9FF1200D9CFE6FF43
:10059000E1CFD9FF090EE126010EF36E020EF3CF73
:1005A000DBFFD950FD0FE96EFF0EDA20EA6EEE5048
:1005B000ED101CE0FD0EDBCFDEFFDBCFDDFFD9CF82
:1005C000E9FFDACFEAFF0A0E0B6E0C6AEECF06F0F7
:1005D000EDCF07F007EC06F006C0EEFF07C0EDFF19
:1005E000EE50ED1003E0020EDB2AE9D7D950030FDD
:1005F000146EDACF15F0020EDB500F011424E96EF1
:10060000000E1520EA6EEF6AFD0EDBCF16F0FE0E2F
:10061000DBCF17F00A0E0B6E0C6A16C006F017C07F
:1006200007F007EC06F002C016F003C017F0300E1A
:100630001626000E1722D950030F146EDACF15F0CC
:10064000020EDB06DB500F011424E96E000E1520AC
:10065000EA6E16C0EFFFD950FD0FE96EFF0EDA20EB
:10066000EA6E0A0E0B6E0C6AEECF06F0EDCF07F0C5
:1006700007EC06F006C0EEFF07C0EDFFEE50ED10F0
:10068000C3E1D950030FE66E000EDA20E66E5EDF9E
:10069000E552E552090EE15C02E2E16AE552E16EE3
:1006A000E552E7CFD9FF1200D9CFE6FFE1CFD9FF5E
:1006B0009EA8FED7FE0EDB50AD6EE552E7CFD9FF08
:1006C0001200ABA207D0AB98280EE66E3BEC06F00A
:1006D000E552AB889EAAFED7AE5000D01200D9CF0B
:1006E000E6FFE1CFD9FF370EE126DE6ADD6AFC0EB8
:1006F000F36E350EF3CFDBFF080EF36E360EF3CF3D
:10070000DBFF600ED36E9B8C929A95946ADE800E0E
:10071000E66E250EE66E9CDEE552E552DE6ADD6A87
:10072000DECF14F0DDCF15F0D890155004E61E0E84
:10073000145C000E155812E2DECFE9FFDDCFEAFFB0
:10074000D890E936EA36640EE926000EEA22EE6A0F
:10075000ED6ADF2A010E01E3DB2AE2D7E66A47DE13
:10076000E55258DEF3CFA2F0F4CFA3F00001010E62
:10077000A25D000EA3595FE3A4C0E9FFA5C0EAFF94
:10078000010ED890E936EA36E806FBE1640EE92668
:10079000000EEA22EE500001A65FEE50A75BA4C057
:1007A000E9FFA5C0EAFF010ED890E936EA36E8066F
:1007B000FBE1640EE926000EEA22A2C0EEFFA3C010
:1007C000EDFFA4C0E9FFA5C0EAFF010ED890E9360D
:1007D000EA36E806FBE1640EE926000EEA22EE5056
:1007E0000001A627EE50A723010EA425A46F000E3A
:1007F000A521A56F1E0EA45D000EA55902E3A46BF2
:10080000A56BA6C0A8F0A7C0A9F01E0E0B6E0C6ABF
:10081000A8C006F0A9C007F007EC06F006C0A8F0D3
:1008200007C0A9F00001580ED880A855020EA9559E
:1008300002E2897A8C740A0EE66ED950030FE66ED6
:10084000000EDA20E66EA8C0E6FFA9C0E6FF1EECA7
:1008500005F0146E050EE15E1450D950030FE66EDC
:10086000000EDA20E66E72DEE552E5520D0EE66EFF
:100870001BDFE5520A0EE66E17DFE552580EE66EF4
:10088000020EE66E45DCE552E552A8C0AAF0A9C00A
:10089000ABF064D7370EE15C02E2E16AE552E16E4B
:0808A000E552E7CFD9FF120079
:0808A8000F9E08D00F9E07AE61
:1008B00005D0066C071EE86A07220F8E07C001F0FC
:1008C00006C000F0136A126A8E0E026E036AB4EF5D
:1008D00004F00F6AF0EC04F00FB673EF04F00FA20F
:1008E0000ED00FB405D07F0E076EFF0E066E1FD020
:1008F000800E076E066A1BD0076A066A18D00FB012
:10090000FBD78F0E0860EDD77E0E0864F5D78E0EEC
:10091000085C05E0D89007320632082AF8D70FA401
:1009200006D0066C071EE86A072207AEE5D712005C
:100930007F0E086EFF0E076E066E056E12007F0EAC
:100940000FBEFF0E086E02D07F0E086E800E076E7F
:10095000066A056AF3D70FAE04D0800E086E076AE8
:10096000F7D7086A076AF4D7015000101310121065
:10097000F8E003BEF0D701BE0CD002500310EBE04C
:10098000D89012361336003601360206D8A0030678
:10099000F2D70350D4E10228D2E012AE11D07F0E7C
:1009A000121402E113A00CD0132AE86A00220122DB
:1009B00007E3D880013200321332022A0228BFE056
:1009C0000250C9E013C005F000C006F00134076E04
:1009D0000230086E0732089E0FBE088E9EEF04F0AC
:1009E0000736083602E30F840F7E06E10F80086A9F
:1009F000076A066A056A1200082803E0D8800732F1
:100A00001200D890073202E10F8212000F86120006
:100A10000C360D3602E30F8C0F7E06E10F880D6A4F
:100A20000C6A0B6A0A6A12000D2803E0D8800C32A7
:0C0A30001200D8900C32EAE10F8A12008C
:040A3C00D9CFE6FF29
:100A4000DACFE6FFFA0EE3CFD9FFFB0EE3CFDAFFF2
:100A5000FD0EE35209E72D0EDE6EFC0EE31EE32AC7
:100A6000FD0ED8B4E306E31EE652E652E652FD0E52
:100A7000E124E76EFF0EE220E46EE652F70EE3CFCC
:100A8000E6FFF70EE3CFE6FF8EEC05F0F90EE1246A
:100A9000E96EFF0EE220EA6E7EEC05F00AE17BECE7
:100AA00005F009E17EEC05F008E17BEC05F007E1DB
:100AB00008D089EC05F084EC05F089EC05F084ECB5
:100AC00005F089EC05F0DE6AF90EE126FF0EE22260
:100AD000FF0EE3CFDAFFE552FF0EE3CFD9FFE55279
:100AE000FC0EE124E96EFF0EE220EA6EEECFF3FF8A
:100AF000EFCFF4FF1200EF380F0B1200EF500F0B87
:100B000002E1EE52D8841200EF380F0B300FDE6E88
:100B10001200EE500F0B300FDE6E1200FC0EE3CF12
:100B2000E9FFFD0EE3CFEAFF100EE66EEE6AEE6A15
:100B3000EF6AD890FD0EE336FE0EE336ED36ED3665
:100B4000EF36FF0EE30609E0AFEC05F0EE52AFEC36
:100B500005F0EE52AFEC05F0EDD7E56E1200030E96
:100B6000EF24E8B6EF6E300EEF24E8BEEF6E000C17
:100B7000060EF66E000EF76E000EF86E000109000C
:100B8000F550B16F0900F550B26F03E1B16701D0C4
:100B90003DD00900F550AC6F0900F550AD6F09006C
:100BA000F550AE6F09000900F550E96E0900F550E7
:100BB000EA6E090009000900F550AF6F0900F55011
:100BC000B06F09000900F6CFB3F0F7CFB4F0F8CF5B
:100BD000B5F0ACC0F6FFADC0F7FFAEC0F8FF000146
:100BE000AF5302E1B05307E00900F550EE6EAF07D6
:100BF000F8E2B007F9D7B3C0F6FFB4C0F7FFB5C04D
:0E0C0000F8FF0001B107000EB25BBFD7120073
:020C0E00036A77
:100C1000026A100EE76ED8900636073602360336A3
:100C20000B50025C0C50035805E30B50025E0C5055
:0A0C3000035A062AE72EF0D712003F
:060C3A00000EF36E00EE57
:100C400000F0030E01D81200EA6002D0EE6AFCD771
:0A0C5000F350E9601200EE6AFCD7D1
:060C5A0012EE00F022EE94
:100C600000F0F86A0F9CB8EC05F046EC06F06FEC6B
:060C700003F0FBD71200A7
:0A0C7600FF0EE350E84E12000000EC
:0C0C800000D000D000D0E82EFAD71200FF
:020C8C00120054
:020C8E000F0055
:0A0C9000000000000000000000005A
:020000040030CA
:0100010009F5
:0100020019E4
:010003001EDE
:010005008278
:010006008178
:00000001FF
