:020000040000FA
:0600000075EF00F0120094
:020006000000F8
:08000800060EF66E000EF76E05
:10001000000EF86E00010900F550656F0900F550FB
:10002000666F03E1656701D03DD00900F550606F50
:100030000900F550616F0900F550626F0900090071
:10004000F550E96E0900F550EA6E09000900090053
:10005000F550636F0900F550646F09000900F6CF91
:1000600067F0F7CF68F0F8CF69F060C0F6FF61C0C5
:10007000F7FF62C0F8FF0001635302E1645307E039
:100080000900F550EE6E6307F8E26407F9D767C020
:10009000F6FF68C0F7FF69C0F8FF00016507000EB2
:0600A000665BBFD71200F1
:0A00A600956A8C6A94948B94F00E16
:1000B000CB6E040ECA6E0C0EBE6E4C0EBD6E0C0ED8
:0A00C000BB6EFC0EBA6EFFD71200F3
:0600CA00000EF36E00EED3
:1000D00000F0030E01D81200EA6002D0EE6AFCD7ED
:0A00E000F350E9601200EE6AFCD74D
:0600EA0012EE00F022EE10
:1000F00000F0F86A019C04EC00F083EC00F053EC93
:0601000000F0FBD7120025
:020106001200E5
:020000040030CA
:0100010009F5
:010003001EDE
:010005008278
:00000001FF
