:040000000CEF00F011
:10000800FACF04F0FBCF05F0E9CF06F00EED00F0D3
:10001800E1EF00F00600EACF07F0E1CF08F0E2CF09
:1000280009F0D9CF0AF0DACF0BF0F3CF0CF0F4CF08
:100038000DF0F6CF0EF0F7CF0FF0F8CF10F0F5CFA8
:1000480011F09EAA69D02C50800AF36E800EF35CE2
:10005800C80ED8B42B5CD8B03BD00101000E2B24BD
:10006800D96E0101010E2C20DA6E24EC01F0DF6E4E
:100078000101000E2B24D96E0101010E2C20DA6E2D
:100088000D0EDF6221D00101010E036E0101000E89
:10009800026E11EC01F00DD00101000E2B24D96E77
:1000A8000101010E2C20DA6E000EDF6E2B06D8A09F
:1000B8002C062C50800AF36E800EF35C010ED8B427
:1000C8002B5CD8B0E9D724D02B4A2C2A9E9A24D06E
:1000D8000101010E036E0101000E026E11EC01F028
:1000E8000DD00101000E2B24D96E0101010E2C2028
:1000F800DA6E000EDF6E2B06D8A02C062C50800A74
:10010800F36E800EF35C010ED8B42B5CD8B0E9D73F
:10011800000E2C6E000E2B6E11C0F5FF10C0F8FFFC
:100128000FC0F7FF0EC0F6FF0DC0F4FF0CC0F3FFC1
:100138000BC0DAFF0AC0D9FF09C0E2FF08C0E1FF1F
:1001480007C0EAFF06C0E9FF05C0FBFF04C0FAFFCD
:100158001100176E000EAC6E000EAB6E17B0AC88B7
:1001680017A202D0AC8CAB8C17B4AC8E17A602D0F9
:10017800AB8801D0AB8A17B8AC849E9817BAAB8607
:1001880017AC02D09D8A01D09D9A9E9A17AE02D0D4
:100198009D8801D09D9812C0AFFF13C014F014C001
:1001A80015F0166A1550B06EAC8AAB8E949C948E7E
:1001B800ACB8ACBE01D0948C120001EE00F0C80EB1
:1001C800EE6AE806FDE12D6A2C6A2B6A780EF66E57
:1001D800020EF76E000EF86E00EE1DF010EE0EF037
:1001E8000900F5CFEEFFE550E150FAE10001FDEF1F
:1001F80000F043EC01F0949C948E7C0E2E6E330E2E
:100208002F6E2FC012F0136A2E50ADEC00F09E9A9C
:100218009F9A9D8AF28CF28EFFD7ACA2FED702C0BD
:10022800D9FF03C0DAFFDF5033EC01F002C0D9FF79
:1002380003C0DAFF024A032ADF50D8B41200EDD710
:10024800F20E2D16ABAC03D02D90ABB02D80ABB415
:100258002D84ABB22D86AECF01F001501200016E95
:10026800ACAC03D0AC902DB2AC8001C0ADFF120095
:100278000D0A596F75207479706564203A00D38827
:06028800D38AD38C1200A2
:020000040020DA
:08000000FFFFFFFFFFFFFFFF00
:020000040030CA
:0E00000000051F1FFF8385FF0FC00FE00F409C
:00000001FF
