:020000040000FA
:060000001EEF04F01200E7
:020006000000F8
:08000800956A8C6A1200020ED9
:10001000E66E1AD8E552280EE66E16D8E552010EA5
:10002000E66E12D8E552170EE66E0ED8E5520C0EAB
:10003000E66E0AD8E552060EE66E06D8E552830E45
:10004000E66E02D8E5521200D9CFE6FFE1CFD9FF24
:10005000E652FE0EDB50F00BDF6EDFCFE6FF2AD854
:10006000E552FE0EDB38F00BF00BDF6EDFCFE6FF64
:1000700021D8E552E552E552E7CFD9FF1200D9CF9A
:10008000E6FFE1CFD9FFE652FE0EDB50F00BDF6E4C
:10009000DFCFE6FF23D8E552FE0EDB38F00BF00B86
:1000A000DF6EDFCFE6FF1AD8E552E552E552E7CF23
:1000B000D9FF1200D9CFE6FFE1CFD9FFFE0EDB500A
:1000C0008C6E8C968C840A0EE66EE66A1BD8E5521E
:1000D000E5528C94E552E7CFD9FF1200D9CFE6FF65
:1000E000E1CFD9FFFE0EDB508C6E8C868C840A0E1D
:1000F000E66EE66A07D8E552E5528C94E552E7CF02
:10010000D9FF1200D9CFE6FFE1CFD9FF040EE126D7
:10011000DE6ADD6ADECF10F0DDCF11F0113404E2CB
:1001200010500508000E115426E3020EDB6A030E80
:10013000DB6A020EDBCF10F0030EDBCF11F0FD0EF9
:10014000DBCF12F0FE0EDBCF13F011501318E8AE28
:1001500002D0133404D01250105C1350115806E230
:10016000020EDB2A030E01E3DB2AE3D7DF2A010EAE
:1001700001E3DB2ACFD7040EE15C02E2E16AE5523B
:10018000E16EE552E7CFD9FF120077C0F6FF78C0E5
:10019000F7FF0800F5500EE077C0F6FF78C0F7FFD4
:1001A0000800F550E66E6BDFE5520001772B000E7C
:1001B0007823EBD71200D9CFE6FFE1CFD9FFFE0EAF
:1001C000DBCFE6FF5CDFE552E552E7CFD9FF120057
:1001D000D9CFE6FFE1CFD9FF090EE126010EF36E7C
:1001E000020EF3CFDBFFD950FD0FE96EFF0EDA20D0
:1001F000EA6EEE50ED101CE0FD0EDBCFDEFFDBCF34
:10020000DDFFD9CFE9FFDACFEAFF0A0E0B6E0C6AE9
:10021000EECF06F0EDCF07F0F8EC03F006C0EEFFEE
:1002200007C0EDFFEE50ED1003E0020EDB2AE9D728
:10023000D950030F106EDACF11F0020EDB500F0110
:100240001024E96E000E1120EA6EEF6AFD0EDBCF7E
:1002500012F0FE0EDBCF13F00A0E0B6E0C6A12C00A
:1002600006F013C007F0F8EC03F002C012F003C070
:1002700013F0300E1226000E1322D950030F106E09
:10028000DACF11F0020EDB06DB500F011024E96E0D
:10029000000E1120EA6E12C0EFFFD950FD0FE96E7B
:1002A000FF0EDA20EA6E0A0E0B6E0C6AEECF06F035
:1002B000EDCF07F0F8EC03F006C0EEFF07C0EDFF4E
:1002C000EE50ED10C3E1D950030FE66E000EDA20B8
:1002D000E66E0CD8E552E552090EE15C02E2E16AF5
:1002E000E552E16EE552E7CFD9FF1200D9CFE6FF24
:1002F000E1CFD9FFFD0EDBCFE9FFFE0EDBCFEAFF3A
:10030000EF5010E0FD0EDBCFE9FFFE0EDBCFEAFF82
:10031000EF50E66EB4DEE552FD0EDB2AFE0E01E381
:10032000DB2AE8D7E552E7CFD9FF1200D9CFE6FFA5
:10033000E1CFD9FFFE0EDB503C0808E2FE0EDB5099
:10034000C30FD40FE66E80DEE5521ED0FE0EDB50EA
:10035000280808E2FE0EDB50D70F940FE66E74DE1D
:10036000E55212D0FE0EDB50140808E2FE0EDB5000
:10037000EB0FC00FE66E68DEE55206D0FE0EDB0422
:10038000800FE66E61DEE552E552E7CFD9FF12003D
:10039000D9CFE6FFE1CFD9FFFE0EDB50100808E20F
:1003A000FE0EDB50EF0FC00FE66E4EDEE55206D0BC
:1003B000FE0EDB04800FE66E47DEE552E552E7CF26
:1003C000D9FF1200010EE66E3FDEE552800EE66EAA
:1003D0003BDEE5521200D9CFE6FFE1CFD9FF040E94
:1003E000E126DE6ADD6ADECF10F0DDCF11F0FD0E12
:1003F000DBCF12F0FE0EDBCF13F013501118E8AE76
:1004000002D0113404D01050125C115013581CE368
:10041000020EDB6A030EDB6A020EDBCF10F0030E66
:10042000DBCF11F0113404E21050E808030E115430
:1004300006E3020EDB2A030E01E3DB2AEDD7DF2AF7
:10044000010E01E3DB2ACFD7040EE15C02E2E16A90
:10045000E552E16EE552E7CFD9FF1200D9CFE6FFB2
:10046000E1CFD9FF020EE126DE6ADD6AF19E3BD8BC
:10047000929A899A809AC8DDCADD010EE66E56DF2F
:10048000E5520001E10E776F070E786F7EDE05EC16
:1004900003F000091DE056CF7CF0150EE66E46DF36
:1004A000E5520001D30E776F070E786F6EDE000104
:1004B000C20E776F070E786F68DE230EE66E36DFAA
:1004C000E55200017C51E66EE66A82DEE552E552B5
:1004D000DED7020EE15C02E2E16AE552E16EE5522E
:1004E000E7CFD9FF1200600ED36E9B8C0001796BB1
:1004F0007A6B7B6BC1689368BAEF02F0D9CFE6FFE5
:10050000E1CFD9FFE652DF6A81B008D000017B510C
:1005100002E1010EDF6E010E7B6F02D000017B6BEA
:10052000DF5000D0E552E552E7CFD9FF1200D9CF16
:10053000E6FFE1CFD9FFFD0EDBCF10F0DB06FE0EAC
:10054000DBCF11F001E2DB061050111001E0F3D710
:10055000E552E7CFD9FF12000001FF0E795D000ED2
:100560007A5904E2792B000E7A2303D0796B7A6BE7
:040570008C7E12006B
:0C057400800E6F6E6EAEFED7776A990E97
:10058000706EB80E716E050E726E1CD015D08F0E87
:10059000706EB80E716E050E726E14D0830E706E92
:1005A000B80E716E050E726E0DD0810E706EB80EA3
:1005B000716E050E726E06D0930E706EB80E716E6F
:1005C000050E726E0F011A6B1B6B1869E00E196F26
:1005D0001E6B1F6B1C691D6F0D01030ED46FD56B55
:1005E0000F01026B036BF00E006FC00E016F0A6B00
:1005F0000B6B6B0E086FC00E096F6F6A6E5001E1D6
:10060000FDD7606A0F01506B1200D9CFE6FFE1CF32
:10061000D9FFE652DF6A60AE1CD063CF60F064CFD2
:1006200061F061CF62F062CF63F065CF64F066CFB6
:1006300065F067CF66F068CF67F069CF68F06ACF82
:1006400069F06BCF6AF06CCF6BF06DCF6CF0609E91
:100650003FD00F0150AF1ED053CF60F054CF61F0A8
:1006600051CF62F052CF63F055CF64F056CF65F0B2
:1006700057CF66F058CF67F059CF68F05ACF69F07E
:100680005BCF6AF05CCF6BF05DCF6CF0509F010EDA
:10069000DF6E1ED00E0120AF1BD023CE60F024CE23
:1006A00061F021CE62F022CE63F025CE64F026CE3A
:1006B00065F027CE66F028CE67F029CE68F02ACE06
:1006C00069F02BCE6AF02CCE6BF02DCE6CF0209F13
:1006D000DF0405E1DF6AA492010E03D002D0000E10
:1006E00000D0E552E552E7CFD9FF1200D9CFE6FF9F
:1006F000E1CFD9FF0F01436B446B4169C00E426FDC
:10070000010E456FFD0EDBCF46FF550E476F486B60
:10071000496B4A6B4B6B4C6B4D6B4087E552E7CF97
:04072000D9FF1200EB
:0C072400060EF66E000EF76E000EF86E6A
:1007300000010900F550726F0900F550736F03E175
:10074000726701D03DD00900F5506D6F0900F5507A
:100750006E6F0900F5506F6F09000900F550E96EE2
:100760000900F550EA6E090009000900F550706FA4
:100770000900F550716F09000900F6CF74F0F7CF4A
:1007800075F0F8CF76F06DC0F6FF6EC0F7FF6FC062
:10079000F8FF0001705302E1715307E00900F550C2
:1007A000EE6E7007F8E27107F9D774C0F6FF75C0F6
:1007B000F7FF76C0F8FF00017207000E735BBFD72A
:0207C000120025
:0E07C200202020202020202020202020202069
:1007D00020200043414E20526563656976696E674B
:0F07E00000466F7265766965772054656368001F
:1007F000036A026A100EE76ED89006360736023694
:1008000003360B50025C0C50035805E30B50025E9C
:0C0810000C50035A062AE72EF0D7120005
:04081C00000EF36E69
:1008200000EE00F0030E01D81200EA6002D0EE6A7A
:0C083000FCD7F350E9601200EE6AFCD720
:04083C0012EE00F0C8
:1008400022EE00F0F86A0F9C92EC03F02CEC04F01E
:080850002EEC02F0FBD71200B0
:0208580012008C
:020000040030CA
:0100010008F6
:0100020019E4
:010003001EDE
:010005008278
:010006008178
:00000001FF
