:040000000CEF00F011
:10000800FACF0DF0FBCF0EF0E9CF0FF084ED01F041
:0400180022EF03F0E0
:100300000068656C6C6F00000600EACF10F0E1CF6A
:1003100011F0E2CF12F0D9CF13F0DACF14F0F3CF0F
:1003200015F0F4CF16F0F6CF17F0F7CF18F0F8CF9E
:1003300019F0F5CF1AF09EAA7FD03F50800AF36ED5
:10034000800EF35CC80ED8B43E5CD8B046D0010134
:10035000000E3E24D96E0101010E3F20DA6EE1EC61
:1003600003F0DF6E0101000E3E24D96E0101010E83
:100370003F20DA6E0D0EDF622CD00101010E036EFC
:100380000101000E026E92EC03F0150E5EEC03F01C
:100390000101010E0C6E0101000E0B6E96EC02F0D5
:1003A0000DD00101000E3E24D96E0101010E3F2047
:1003B000DA6E000EDF6E3E06D8A03F063F50800A80
:1003C000F36E800EF35C010ED8B43E5CD8B0E9D772
:1003D0002FD03E4A3F2A9E9A2FD00101010E036E74
:1003E0000101000E026E92EC03F0150E5EEC03F0BC
:1003F0000101010E0C6E0101000E0B6E96EC02F075
:100400000DD00101000E3E24D96E0101010E3F20E6
:10041000DA6E000EDF6E3E06D8A03F063F50800A1F
:10042000F36E800EF35C010ED8B43E5CD8B0E9D711
:10043000000E3F6E000E3E6E1AC0F5FF19C0F8FFA9
:1004400018C0F7FF17C0F6FF16C0F4FF15C0F3FF82
:1004500014C0DAFF13C0D9FF12C0E2FF11C0E1FFE0
:1004600010C0EAFF0FC0E9FF0EC0FBFF0DC0FAFF8E
:100470001100206E000EAC6E000EAB6E20B0AC888A
:1004800020A202D0AC8CAB8C20B4AC8E20A602D0C3
:10049000AB8801D0AB8A20B8AC849E9820BAAB86DA
:1004A00020AC02D09D8A01D09D9A9E9A20AE02D0A7
:1004B0009D8801D09D981BC0AFFF1CC01DF01DC0C2
:1004C0001EF01F6A1E50B06EAC8AAB8E949C948E48
:1004D000ACB8ACBE01D0948C120014D025C0F6FF8D
:1004E00026C0F7FFF86A020EF76403D00800F55043
:1004F00005D0F6CFE9FFF7CFEAFFEF50A5EC03F008
:10050000254A262A25C0F6FF26C0F7FFF86A020E04
:10051000F76403D00800F55005D0F6CFE9FFF7CF18
:10052000EAFFEF500009D8B41200D8D714D00BC09E
:10053000F6FF0CC0F7FFF86A020EF76403D008005C
:10054000F55005D0F6CFE9FFF7CFEAFFEF50C3EC47
:1005500003F00B4A0C2A0BC0F6FF0CC0F7FFF86A39
:10056000020EF76403D00800F55005D0F6CFE9FF7E
:10057000F7CFEAFFEF500009D8B41200D8D73BEC10
:1005800004F0949C948E7C0E416E330E426E42C0F9
:100590001BF01C6A415039EC02F09E9A9F9A9D8A8A
:1005A000F28CF28E36EC04F07CEC03F0010E40ECA1
:1005B00003F0030E266E010E256E6DEC02F0FFD7E0
:1005C000000E216E000E206E2150800A800F060E54
:1005D000D8B4205CD8B014D0000E1F6E000E1E6E72
:1005E00002D01E4A1F2A1F50800A1D6E1B501E5C1F
:1005F0001C50800A1D58D8A0F4D7204A212AE4D7DD
:100600001200000E076E000E066E0750800A800F63
:10061000060ED8B4065CD8B014D0000E056E000EDD
:10062000046E02D0044A052A0550800A036E015068
:10063000045C0250800A0358D8A0F4D7064A072A5F
:10064000E4D7120001EE00F0C80EEE6AE806FDE104
:10065000406A3F6A3E6A480EF66E080EF76E000E5C
:10066000F86E00EE2CF010EE12F00900F5CFEEFF60
:10067000E550E150FAE1000EF86E0001BFEF02F024
:10068000256E3C0E256405D02550970FB4EC03F081
:1006900014D0280E256405D025506B0FB4EC03F060
:1006A0000CD0140E256405D02550AB0FB4EC03F02C
:1006B00004D025507F0FB4EC03F012000B6E3C0EFB
:1006C0000B6405D00B50970FD2EC03F014D0280E1A
:1006D0000B6405D00B506B0FD2EC03F00CD0140E52
:1006E0000B6405D00B50AB0FD2EC03F004D00B50D1
:1006F0007F0FD2EC03F01200020EB4EC03F0280ED0
:10070000B4EC03F0010EB4EC03F0170EB4EC03F0FC
:100710000C0EB4EC03F0060EB4EC03F0830EB4EC54
:1007200003F01200ACA2FED702C0D9FF03C0DAFF6B
:10073000DF502DEC04F002C0D9FF03C0DAFF024AFB
:10074000032ADF50D8B41200EDD7236E2350F00BEC
:10075000246E2450F0EC03F02338F00BF00B246EE1
:100760002450F0EC03F01200236E2350F00B246EA3
:100770002450FDEC03F02338F00BF00B246E2450D2
:10078000FDEC03F01200096E0950F00B0A6E0A50DE
:100790000AEC04F00938F00BF00B0A6E0A500AEC70
:1007A00004F01200096E0950F00B0A6E0A5017ECA3
:1007B00004F00938F00BF00B0A6E0A5017EC04F045
:1007C0001200F20E4016ABAC03D04090ABB04080AC
:1007D000ABB44084ABB24086AECF01F00150120002
:1007E000226E22C08CFF8C868C84000E1C6E0A0E3A
:1007F0001B6EE0EC02F08C941200226E22C08CFF83
:100800008C968C84000E1C6E0A0E1B6EE0EC02F0BF
:100810008C941200086E08C08CFF8C868C84000EAD
:10082000026E0A0E016E01EC03F08C941200086E49
:1008300008C08CFF8C968C84000E026E0A0E016E2E
:1008400001EC03F08C94120068656C6C6F20706C86
:1008500065617365207479706500016EACAC03D07E
:10086000AC9040B2AC8001C0ADFF1200000E956E9E
:0E087000000E8C6E1200D388D38AD38C120037
:020000040020DA
:08000000FFFFFFFFFFFFFFFF00
:020000040030CA
:0E000000FF071F1FFF8285FF0FC00FE00F409C
:00000001FF
