:020000040000FA
:060000007AEF07F0120088
:020006000000F8
:080008000F0E926EBD0EC06EDA
:10001000C16A1200D9CFE6FFE1CFD9FF280EE66E04
:1000200088EC07F0E552FE0EDB50040DF350C26E73
:10003000C280E552E7CFD9FF1200C36AC46AC28208
:10004000C2B2FED7C450166E16C017F0166AC3505F
:1000500000011610146E17C015F014C0F3FF15C080
:10006000F4FF00D01200C36AC46AC282C2B2FED7D3
:10007000C35000D01200D9CFE6FFE1CFD9FF020E66
:10008000E126100EDE6EDD6A948E949C640E146E72
:10009000156AFD0EDBCF06F0FE0EDBCF07F014C0B5
:1000A0000BF015C00CF054EC07F00DEC06F022EC50
:1000B00006F0FD0E06C0DBFFFE0E07C0DBFFDECF45
:1000C00016F0DDCF17F0C60E1702F3CF17F0090EAA
:1000D0001602F3501726C60E1602F3CF16F0F45090
:1000E000172616C006F017C007F0FD0EDBCF0BF089
:1000F000FE0EDBCF0CF054EC07F006C014F007C086
:1001000015F01406000E155AFD0E14C0DBFFFE0E8E
:1001100015C0DBFFFD0EDB50AF6EFD0EDBCF14F024
:10012000FE0EDBCF15F015C014F0156A1450B06E3A
:10013000240EAC6E900EAB6E080EB86E020EE15C33
:1001400002E2E16AE552E16EE552E7CFD9FF120023
:100150006AC0F6FF6BC0F7FF0800F5500EE06AC0FA
:10016000F6FF6BC0F7FF0800F550E66EDED8E552EB
:1001700000016A2B000E6B23EBD70D0EE66ED5D86F
:10018000E5521200ACA2FED7090EE66E13D9E55275
:100190006CC0E9FF6DC0EAFFEF50E66E0BD9E55287
:1001A00000016C516D1101E109D06CC0E9FF6DC017
:1001B000EAFF6C2B000E6D23EF50E4E1090EE66EB2
:1001C000B4D8E5520D0EE66EB0D8E5521200D9CF84
:1001D000E6FFE1CFD9FFFD0EDBCFE9FFFE0EDBCF5F
:1001E000EAFFEF5010E0FD0EDBCFE9FFFE0EDBCFA4
:1001F000EAFFEF50E66E99D8E552FD0EDB2AFE0EBF
:1002000001E3DB2AE8D7E552E7CFD9FF1200D9CFC7
:10021000E6FFE1CFD9FF090EE126010EF36E020ED3
:10022000F3CFDBFFD950FD0FE96EFF0EDA20EA6E47
:10023000EE50ED101CE0FD0EDBCFDEFFDBCFDDFF6F
:10024000D9CFE9FFDACFEAFF0A0E0B6E0C6AEECFC8
:1002500006F0EDCF07F054EC07F006C0EEFF07C044
:10026000EDFFEE50ED1003E0020EDB2AE9D7D95086
:10027000030F146EDACF15F0020EDB500F011424B9
:10028000E96E000E1520EA6EEF6AFD0EDBCF16F068
:10029000FE0EDBCF17F00A0E0B6E0C6A16C006F0CE
:1002A00017C007F054EC07F002C016F003C017F0B7
:1002B000300E1626000E1722D950030F146EDACF17
:1002C00015F0020EDB06DB500F011424E96E000E60
:1002D0001520EA6E16C0EFFFD950FD0FE96EFF0E34
:1002E000DA20EA6E0A0E0B6E0C6AEECF06F0EDCF46
:1002F00007F054EC07F006C0EEFF07C0EDFFEE502C
:10030000ED10C3E1D950030FE66E000EDA20E66E61
:100310005EDFE552E552090EE15C02E2E16AE55278
:10032000E16EE552E7CFD9FF1200D9CFE6FFE1CF6A
:10033000D9FF9EA8FED7FE0EDB50AD6EE552E7CF8B
:10034000D9FF1200ABA202D0AB98AB889EAAFED711
:10035000AE5000D01200D9CFE6FFE1CFD9FF020E98
:10036000E126DF6AFC0EDB50DF5C1AE29EAAFED7B4
:10037000E9DFE76E010EE7CFDBFFDB5001E110D0D4
:10038000FD0EDBCFE9FFFE0EDBCFEAFF010EDBCF78
:10039000EFFFFD0EDB2AFE0E01E3DB2ADF2AE2D7A8
:1003A000020EE15C02E2E16AE552E16EE552E7CF5E
:1003B000D9FF1200D9CFE6FFE1CFD9FFFE0EDB5007
:1003C000AD6EE552E7CFD9FF1200956A8C6A120034
:1003D000020EE66E1AD8E552280EE66E16D8E552E1
:1003E000010EE66E12D8E552170EE66E0ED8E552F3
:1003F0000C0EE66E0AD8E552060EE66E06D8E552F9
:10040000830EE66E02D8E5521200D9CFE6FFE1CFA7
:10041000D9FFE652FE0EDB50F00BDF6EDFCFE6FFBA
:100420002AD8E552FE0EDB38F00BF00BDF6EDFCF83
:10043000E6FF21D8E552E552E552E7CFD9FF120099
:10044000D9CFE6FFE1CFD9FFE652FE0EDB50F00B2D
:10045000DF6EDFCFE6FF23D8E552FE0EDB38F00B70
:10046000F00BDF6EDFCFE6FF1AD8E552E552E5521A
:10047000E7CFD9FF1200D9CFE6FFE1CFD9FFFE0EBB
:10048000DB508C6E8C968C840A0EE66EE66A1BD866
:10049000E552E5528C94E552E7CFD9FF1200D9CF4F
:1004A000E6FFE1CFD9FFFE0EDB508C6E8C868C848C
:1004B0000A0EE66EE66A07D8E552E5528C94E552DC
:1004C000E7CFD9FF1200D9CFE6FFE1CFD9FF040E65
:1004D000E126DE6ADD6ADECF14F0DDCF15F01534DB
:1004E00004E214500508000E155426E3020EDB6AE0
:1004F000030EDB6A020EDBCF14F0030EDBCF15F028
:10050000FD0EDBCF16F0FE0EDBCF17F015501718DF
:10051000E8AE02D0173404D01650145C17501558AA
:1005200006E2020EDB2A030E01E3DB2AE3D7DF2A11
:10053000010E01E3DB2ACFD7040EE15C02E2E16A9F
:10054000E552E16EE552E7CFD9FF1200D9CFE6FFC1
:10055000E1CFD9FFFD0EDBCFE9FFFE0EDBCFEAFFD7
:10056000EF5010E0FD0EDBCFE9FFFE0EDBCFEAFF20
:10057000EF50E66E65DFE552FD0EDB2AFE0E01E36D
:10058000DB2AE8D7E552E7CFD9FF1200D9CFE6FF43
:10059000E1CFD9FFFE0EDBCFE6FF52DFE552E55299
:1005A000E7CFD9FF1200D9CFE6FFE1CFD9FF090E7F
:1005B000E126010EF36E020EF3CFDBFFD950FD0FE3
:1005C000E96EFF0EDA20EA6EEE50ED101CE0FD0E33
:1005D000DBCFDEFFDBCFDDFFD9CFE9FFDACFEAFFEC
:1005E0000A0E0B6E0C6AEECF06F0EDCF07F054EC5E
:1005F00007F006C0EEFF07C0EDFFEE50ED1003E080
:10060000020EDB2AE9D7D950030F146EDACF15F0AA
:10061000020EDB500F011424E96E000E1520EA6E65
:10062000EF6AFD0EDBCF16F0FE0EDBCF17F00A0EE1
:100630000B6E0C6A16C006F017C007F054EC07F0FA
:1006400002C016F003C017F0300E1626000E172257
:10065000D950030F146EDACF15F0020EDB06DB5013
:100660000F011424E96E000E1520EA6E16C0EFFF8C
:10067000D950FD0FE96EFF0EDA20EA6E0A0E0B6EFE
:100680000C6AEECF06F0EDCF07F054EC07F006C091
:10069000EEFF07C0EDFFEE50ED10C3E1D950030FA0
:1006A000E66E000EDA20E66E0CD8E552E552090E31
:1006B000E15C02E2E16AE552E16EE552E7CFD9FF83
:1006C0001200D9CFE6FFE1CFD9FFFD0EDBCFE9FF66
:1006D000FE0EDBCFEAFFEF5010E0FD0EDBCFE9FFAF
:1006E000FE0EDBCFEAFFEF50E66EAADEE552FD0E0E
:1006F000DB2AFE0E01E3DB2AE8D7E552E7CFD9FF7C
:100700001200D9CFE6FFE1CFD9FFFE0EDB503C0847
:1007100008E2FE0EDB50C30FD40FE66E76DEE55224
:100720001ED0FE0EDB50280808E2FE0EDB50D70F6D
:10073000940FE66E6ADEE55212D0FE0EDB5014080E
:1007400008E2FE0EDB50EB0FC00FE66E5EDEE552F8
:1007500006D0FE0EDB04800FE66E57DEE552E55252
:10076000E7CFD9FF1200D9CFE6FFE1CFD9FFFE0EC8
:10077000DB50100808E2FE0EDB50EF0FC00FE66EF4
:1007800044DEE55206D0FE0EDB04800FE66E3DDE51
:10079000E552E552E7CFD9FF1200010EE66E35DED5
:1007A000E552800EE66E31DEE5521200D9CFE6FF4B
:1007B000E1CFD9FF0A0EE126010EF36E080EF3CF4A
:1007C000DBFF090EDB6A600ED36E9B8C946A956A20
:1007D0008B908B92800EE66E250EE66E4CDCE55219
:1007E000E55212DC280EE66E26EC07F0E552F0DD4D
:1007F000D4DF010EE66EB7DFE552990EE66E0E0EFF
:10080000E66EA4DEE552E5529EAA35D09E9A010E10
:10081000F36E080EF3CFDBFF090EDB6A010EE66E06
:10082000A2DFE552930EE66E0E0EE66E8FDEE55207
:10083000E552090EE66E97DFE5528D0EE66E0E0E5E
:10084000E66E84DEE552E552110EE66E8CDFE5526F
:10085000870EE66E0E0EE66E79DEE552E552190E53
:10086000E66E81DFE552810EE66E0E0EE66E6EDEFE
:10087000E552E55204D0080EDB6A090EDB6AD95056
:10088000080FE96EDACFEAFF010EEE1801E1ED5034
:1008900001E0B8D1E66A0AEC00F0E5521DEC00F088
:1008A000F3CFDEFFF4CFDDFFE66A26EC07F0E5527A
:1008B000010EE66E0AEC00F0E5521DEC00F0020EAF
:1008C000F3CFDBFF030EF4CFDBFFE66A26EC07F085
:1008D000E552020EE66E0AEC00F0E5521DEC00F067
:1008E000040EF3CFDBFF050EF4CFDBFFE66A26EC48
:1008F00007F0E552030EE66E0AEC00F0E5521DEC3F
:1009000000F0060EF3CFDBFF070EF4CFDBFFE66A45
:1009100026EC07F0E552DECF14F0DDCF15F01534EC
:1009200004E21450BC08020E155413E2060EE66EE3
:100930001ADFE5527F0EE66E0E0EE66E07DEE5521A
:10094000E5527D0EE66E0E0EE66E00DEE552E552D5
:1009500012D0060EE66E07DFE5527A0EE66E0E0E38
:10096000E66EF4DDE552E5527D0EE66E0E0EE66EA5
:10097000EDDDE552E552020EDBCF14F0030EDBCFC6
:1009800015F0153404E21450BC08020E155413E29D
:100990000E0EE66EE8DEE5527F0EE66E0E0EE66E99
:1009A000D5DDE552E5527D0EE66E0E0EE66ECEDD2D
:1009B000E552E55212D00E0EE66ED5DEE5527A0E05
:1009C000E66E0E0EE66EC2DDE552E5527D0EE66E77
:1009D0000E0EE66EBBDDE552E552040EDBCF14F0E1
:1009E000050EDBCF15F0153404E21450BC08020EDE
:1009F000155413E2160EE66EB6DEE5527F0EE66E75
:100A00000E0EE66EA3DDE552E5527D0EE66E0E0E8D
:100A1000E66E9CDDE552E55212D0160EE66EA3DEC0
:100A2000E5527A0EE66E0E0EE66E90DDE552E55268
:100A30007D0EE66E0E0EE66E89DDE552E552060E7F
:100A4000DBCF14F0070EDBCF15F0153404E21450A1
:100A5000BC08020E155413E21E0EE66E84DEE5524B
:100A60007F0EE66E0E0EE66E71DDE552E5527D0EEE
:100A7000E66E0E0EE66E6ADDE552E55212D01E0EEF
:100A8000E66E71DEE5527A0EE66E0E0EE66E5EDD05
:100A9000E552E5527D0EE66E0E0EE66E57DDE5522E
:100AA000E552DECF14F0DDCF15F0D890155004E6F6
:100AB000BC0E145C020E15582CE2020EDBCF16F0B1
:100AC000030EDBCF17F0D890175004E6BC0E165C6F
:100AD000020E17581EE2040EDBCF18F0050EDBCF16
:100AE00019F0D890195004E6BC0E185C020E195883
:100AF00010E2060EDBCF1AF0070EDBCF1BF0D8900A
:100B00001B5004E6BC0E1A5C020E1B5802E28B80DE
:100B100001D08B90DECF14F0DDCF15F0153404E258
:100B20001450BC08020E155427E3020EDBCF16F05A
:100B3000030EDBCF17F0173404E21650BC08020E88
:100B400017541AE3040EDBCF18F0050EDBCF19F0B3
:100B5000193404E21850BC08020E19540DE3060EB5
:100B6000DBCF1AF0070EDBCF1BF01B3404E21A5068
:100B7000BC08020E1B5445E28C8C8C9E640EE66E03
:100B800026EC07F0E552640EE66E26EC07F0E5521F
:100B90008C9C8C9E640EE66E26EC07F0E552640E8B
:100BA000E66E26EC07F0E552640EE66E26EC07F0E2
:100BB000E552640EE66E26EC07F0E552640EE66E32
:100BC00026EC07F0E552640EE66E26EC07F0E552DF
:100BD000640EE66E26EC07F0E552640EE66E26EC37
:100BE00007F0E5528C9C8C8E640EE66E26EC07F0C6
:100BF000E552640EE66E26EC07F0E5528C9C8C9E66
:100C000001D08B9001D60A0EE15C02E2E16AE55266
:0A0C1000E16EE552E7CFD9FF1200B4
:060C1A000F9E08D00F9EA2
:100C200007AE05D0066C071EE86A07220F8E07C0C4
:100C300001F006C000F0136A126A8E0E026E036A9B
:100C40006DEF06F00F6AA9EC06F00FB62CEF06F078
:100C50000FA20ED00FB405D07F0E076EFF0E066EEA
:100C60001FD0800E076E066A1BD0076A066A18D06E
:100C70000FB0FBD78F0E0860EDD77E0E0864F5D756
:100C80008E0E085C05E0D89007320632082AF8D7A5
:100C90000FA406D0066C071EE86A072207AEE5D748
:100CA00012007F0E086EFF0E076E066E056E1200B4
:100CB0007F0E0FBEFF0E086E02D07F0E086E800EF4
:100CC000076E066A056AF3D70FAE04D0800E086E71
:100CD000076AF7D7086A076AF4D7015000101310A3
:100CE0001210F8E003BEF0D701BE0CD00250031082
:100CF000EBE0D89012361336003601360206D8A043
:100D00000306F2D70350D4E10228D2E012AE11D08C
:100D10007F0E121402E113A00CD0132AE86A0022FD
:100D2000012207E3D880013200321332022A02285E
:100D3000BFE00250C9E013C005F000C006F0013466
:100D4000076E0230086E0732089E0FBE088E57EFFE
:100D500006F00736083602E30F840F7E06E10F80A7
:100D6000086A076A066A056A1200082803E0D88044
:100D700007321200D890073202E10F8212000F866C
:100D800012000C360D3602E30F8C0F7E06E10F8841
:100D90000D6A0C6A0B6A0A6A12000D2803E0D880FB
:0E0DA0000C321200D8900C32EAE10F8A1200D9
:020DAE00060E2F
:100DB000F66E000EF76E000EF86E00010900F55099
:100DC000656F0900F550666F03E1656701D03DD09E
:100DD0000900F550606F0900F550616F0900F5508A
:100DE000626F09000900F550E96E0900F550EA6EDE
:100DF000090009000900F550636F0900F550646FA0
:100E000009000900F6CF67F0F7CF68F0F8CF69F076
:100E100060C0F6FF61C0F7FF62C0F8FF00016353D6
:100E200002E1645307E00900F550EE6E6307F8E253
:100E30006407F9D767C0F6FF68C0F7FF69C0F8FF1D
:0C0E400000016507000E665BBFD71200C2
:040E4C00FF0EE35062
:100E50001D6EEF0E01D0F30EE76EE72E2DEF07F0BB
:100E60000C0E1C6EE76AE72E33EF07F01C2E32EFF4
:0A0E700007F01D2E2BEF07F0120013
:060E7A004E410020004182
:100E8000004C4F54343A004C4F54333A004C4F54BA
:100E9000323A004C4F54313A00536D617274205015
:070EA00061726B696E6700CF
:080EA800036A026A100EE76EF6
:100EB000D89006360736023603360B50025C0C50CB
:100EC000035805E30B50025E0C50035A062AE72E26
:040ED000F0D7120045
:0C0ED400000EF36E00EE00F0030E01D8DB
:100EE0001200EA6002D0EE6AFCD7F350E96012000B
:040EF000EE6AFCD7D3
:0C0EF40012EE00F022EE00F0F86A0F9CF5
:100F0000D7EC06F093EC07F0D6EC03F0FBD7120019
:100F1000FF0EE350E84E1200000000D000D000D0D9
:060F2000E82EFAD71200D2
:020F26001200B7
:020000040030CA
:0100010009F5
:0100020019E4
:010003001EDE
:010005008278
:010006008574
:00000001FF
