:020000040000FA
:06000000F1EF02F0120016
:020006000000F8
:08000800D9CFE6FFE1CFD9FFDB
:10001000650EE126800EE66E250EE66E26D8E552C8
:10002000E5520001FE0E6A6F050E6B6F6ED80F0E63
:10003000E66ED950010FE66E000EDA20E66E58D952
:10004000E552E552E5520001D950010F6C6FDACF4D
:100050006DF071D8ECD7650EE15C02E2E16AE55221
:10006000E16EE552E7CFD9FF1200D9CFE6FFE1CF2D
:10007000D9FF948E949C640E146E156AFD0EDBCF2E
:1000800006F0FE0EDBCF07F014C00BF015C00CF02D
:10009000CBEC02F0B2EC01F0C7EC01F0FD0E06C0B3
:1000A000DBFFFE0E07C0DBFF600E066E9C0E076EC8
:1000B000FD0EDBCF0BF0FE0EDBCF0CF0CBEC02F035
:1000C00006C014F007C015F01406000E155AFD0EF8
:1000D00014C0DBFFFE0E15C0DBFFFD0EDB50AF6E64
:1000E000FD0EDBCF14F0FE0EDBCF15F015C014F0C3
:1000F000156A1450B06E240EAC6E900EAB6E080EE6
:10010000B86EE552E7CFD9FF12006AC0F6FF6BC0A8
:10011000F7FF0800F5500EE06AC0F6FF6BC0F7FF6E
:100120000800F550E66ECED8E55200016A2B000EAD
:100130006B23EBD71200ACA2FED76CC0E9FF6DC0F9
:10014000EAFFEF50E66E03D9E55200016C516D11E4
:1001500001E109D06CC0E9FF6DC0EAFF6C2B000E15
:100160006D23EF50E8E11200D9CFE6FFE1CFD9FFD0
:10017000FD0EDBCFE9FFFE0EDBCFEAFFEF5010E014
:10018000FD0EDBCFE9FFFE0EDBCFEAFFEF50E66EA0
:1001900099D8E552FD0EDB2AFE0E01E3DB2AE8D7F3
:1001A000E552E7CFD9FF1200D9CFE6FFE1CFD9FF63
:1001B000090EE126010EF36E020EF3CFDBFFD950DC
:1001C000FD0FE96EFF0EDA20EA6EEE50ED101CE036
:1001D000FD0EDBCFDEFFDBCFDDFFD9CFE9FFDACFCE
:1001E000EAFF0A0E0B6E0C6AEECF06F0EDCF07F0B9
:1001F000CBEC02F006C0EEFF07C0EDFFEE50ED10B5
:1002000003E0020EDB2AE9D7D950030F146EDACFD0
:1002100015F0020EDB500F011424E96E000E1520BC
:10022000EA6EEF6AFD0EDBCF16F0FE0EDBCF17F0A5
:100230000A0E0B6E0C6A16C006F017C007F0CBEC66
:1002400002F002C016F003C017F0300E1626000EA2
:100250001722D950030F146EDACF15F0020EDB0609
:10026000DB500F011424E96E000E1520EA6E16C053
:10027000EFFFD950FD0FE96EFF0EDA20EA6E0A0E8D
:100280000B6E0C6AEECF06F0EDCF07F0CBEC02F070
:1002900006C0EEFF07C0EDFFEE50ED10C3E1D950F0
:1002A000030FE66E000EDA20E66E5EDFE552E552E1
:1002B000090EE15C02E2E16AE552E16EE552E7CF48
:1002C000D9FF1200D9CFE6FFE1CFD9FF9EA8FED714
:1002D000FE0EDB50AD6EE552E7CFD9FF1200ABA2A8
:1002E00002D0AB98AB889EAAFED7AE5000D01200C9
:1002F000D9CFE6FFE1CFD9FF020EE126DF6AFC0E7F
:10030000DB50DF5C1AE29EAAFED7E9DFE76E010E42
:10031000E7CFDBFFDB5001E110D0FD0EDBCFE9FFC3
:10032000FE0EDBCFEAFF010EDBCFEFFFFD0EDB2A77
:10033000FE0E01E3DB2ADF2AE2D7020EE15C02E2D5
:10034000E16AE552E16EE552E7CFD9FF1200D9CF5D
:10035000E6FFE1CFD9FFFE0EDB50AD6EE552E7CFF1
:04036000D9FF1200AF
:0C0364000F9E08D00F9E07AE05D0066C5F
:10037000071EE86A07220F8E07C001F006C000F0D2
:10038000136A126A8E0E026E036A12EF02F00F6A8F
:100390004EEC02F00FB6D1EF01F00FA20ED00FB469
:1003A00005D07F0E076EFF0E066E1FD0800E076E03
:1003B000066A1BD0076A066A18D00FB0FBD78F0EEB
:1003C0000860EDD77E0E0864F5D78E0E085C05E058
:1003D000D89007320632082AF8D70FA406D0066C48
:1003E000071EE86A072207AEE5D712007F0E086EE7
:1003F000FF0E076E066E056E12007F0E0FBEFF0E1B
:10040000086E02D07F0E086E800E076E066A056ABF
:10041000F3D70FAE04D0800E086E076AF7D7086ACC
:10042000076AF4D70150001013101210F8E003BE51
:10043000F0D701BE0CD002500310EBE0D89012367A
:100440001336003601360206D8A00306F2D7035051
:10045000D4E10228D2E012AE11D07F0E121402E1D4
:1004600013A00CD0132AE86A0022012207E3D880E7
:10047000013200321332022A0228BFE00250C9E0E2
:1004800013C005F000C006F00134076E0230086E9C
:100490000732089E0FBE088EFCEF01F007360836C3
:1004A00002E30F840F7E06E10F80086A076A066A7E
:1004B000056A1200082803E0D88007321200D8909D
:1004C000073202E10F8212000F8612000C360D3641
:1004D00002E30F8C0F7E06E10F880D6A0C6A0B6A2F
:1004E0000A6A12000D2803E0D8800C321200D8905E
:0804F0000C32EAE10F8A120050
:0804F800060EF66E000EF76E11
:10050000000EF86E00010900F550656F0900F55006
:10051000666F03E1656701D03DD00900F550606F5B
:100520000900F550616F0900F550626F090009007C
:10053000F550E96E0900F550EA6E0900090009005E
:10054000F550636F0900F550646F09000900F6CF9C
:1005500067F0F7CF68F0F8CF69F060C0F6FF61C0D0
:10056000F7FF62C0F8FF0001635302E1645307E044
:100570000900F550EE6E6307F8E26407F9D767C02B
:10058000F6FF68C0F7FF69C0F8FF00016507000EBD
:06059000665BBFD71200FC
:0A059600036A026A100EE76ED890A7
:1005A00006360736023603360B50025C0C500358F1
:1005B00005E30B50025E0C50035A062AE72EF0D7D3
:0205C000120027
:0E05C200000EF36E00EE00F0030E01D81200E2
:1005D000EA6002D0EE6AFCD7F350E9601200EE6ADE
:0205E000FCD746
:0E05E20012EE00F022EE00F0F86A0F9C7CECA6
:0E05F00002F001EC03F004EC00F0FBD7120067
:0205FE00415466
:0106000000F9
:020602001200E4
:00000001FF
