:020000040000FA
:0600000006EF03F0120000
:020006000000F8
:08000800956A8C6A1200020ED9
:10001000E66E1AD8E552280EE66E16D8E552010EA5
:10002000E66E12D8E552170EE66E0ED8E5520C0EAB
:10003000E66E0AD8E552060EE66E06D8E552830E45
:10004000E66E02D8E5521200D9CFE6FFE1CFD9FF24
:10005000E652FE0EDB50F00BDF6EDFCFE6FF2AD854
:10006000E552FE0EDB38F00BF00BDF6EDFCFE6FF64
:1000700021D8E552E552E552E7CFD9FF1200D9CF9A
:10008000E6FFE1CFD9FFE652FE0EDB50F00BDF6E4C
:10009000DFCFE6FF23D8E552FE0EDB38F00BF00B86
:1000A000DF6EDFCFE6FF1AD8E552E552E552E7CF23
:1000B000D9FF1200D9CFE6FFE1CFD9FFFE0EDB500A
:1000C0008C6E8C968C840A0EE66EE66A1BD8E5521E
:1000D000E5528C94E552E7CFD9FF1200D9CFE6FF65
:1000E000E1CFD9FFFE0EDB508C6E8C868C840A0E1D
:1000F000E66EE66A07D8E552E5528C94E552E7CF02
:10010000D9FF1200D9CFE6FFE1CFD9FF040EE126D7
:10011000DE6ADD6ADECF10F0DDCF11F0113404E2CB
:1001200010500508000E115426E3020EDB6A030E80
:10013000DB6A020EDBCF10F0030EDBCF11F0FD0EF9
:10014000DBCF12F0FE0EDBCF13F011501318E8AE28
:1001500002D0133404D01250105C1350115806E230
:10016000020EDB2A030E01E3DB2AE3D7DF2A010EAE
:1001700001E3DB2ACFD7040EE15C02E2E16AE5523B
:10018000E16EE552E7CFD9FF12006AC0F6FF6BC0FF
:10019000F7FF0800F5500EE06AC0F6FF6BC0F7FFEE
:1001A0000800F550E66E6BDFE55200016A2B000E89
:1001B0006B23EBD71200D9CFE6FFE1CFD9FFFE0EBC
:1001C000DBCFE6FF5CDFE552E552E7CFD9FF120057
:1001D000D9CFE6FFE1CFD9FF090EE126010EF36E7C
:1001E000020EF3CFDBFFD950FD0FE96EFF0EDA20D0
:1001F000EA6EEE50ED101CE0FD0EDBCFDEFFDBCF34
:10020000DDFFD9CFE9FFDACFEAFF0A0E0B6E0C6AE9
:10021000EECF06F0EDCF07F0E0EC02F006C0EEFF07
:1002200007C0EDFFEE50ED1003E0020EDB2AE9D728
:10023000D950030F106EDACF11F0020EDB500F0110
:100240001024E96E000E1120EA6EEF6AFD0EDBCF7E
:1002500012F0FE0EDBCF13F00A0E0B6E0C6A12C00A
:1002600006F013C007F0E0EC02F002C012F003C089
:1002700013F0300E1226000E1322D950030F106E09
:10028000DACF11F0020EDB06DB500F011024E96E0D
:10029000000E1120EA6E12C0EFFFD950FD0FE96E7B
:1002A000FF0EDA20EA6E0A0E0B6E0C6AEECF06F035
:1002B000EDCF07F0E0EC02F006C0EEFF07C0EDFF67
:1002C000EE50ED10C3E1D950030FE66E000EDA20B8
:1002D000E66E0CD8E552E552090EE15C02E2E16AF5
:1002E000E552E16EE552E7CFD9FF1200D9CFE6FF24
:1002F000E1CFD9FFFD0EDBCFE9FFFE0EDBCFEAFF3A
:10030000EF5010E0FD0EDBCFE9FFFE0EDBCFEAFF82
:10031000EF50E66EB4DEE552FD0EDB2AFE0E01E381
:10032000DB2AE8D7E552E7CFD9FF1200D9CFE6FFA5
:10033000E1CFD9FFFE0EDB503C0808E2FE0EDB5099
:10034000C30FD40FE66E80DEE5521ED0FE0EDB50EA
:10035000280808E2FE0EDB50D70F940FE66E74DE1D
:10036000E55212D0FE0EDB50140808E2FE0EDB5000
:10037000EB0FC00FE66E68DEE55206D0FE0EDB0422
:10038000800FE66E61DEE552E552E7CFD9FF12003D
:10039000D9CFE6FFE1CFD9FFFE0EDB50100808E20F
:1003A000FE0EDB50EF0FC00FE66E4EDEE55206D0BC
:1003B000FE0EDB04800FE66E47DEE552E552E7CF26
:1003C000D9FF1200010EE66E3FDEE552800EE66EAA
:1003D0003BDEE5521200D9CFE6FFE1CFD9FF040E94
:1003E000E126DE6ADD6ADECF10F0DDCF11F01134D8
:1003F00004E210506408000E115417E3DE6ADD6A4F
:10040000DECF10F0DDCF11F0113404E21050E80817
:10041000030E115405E3DF2A010E01E3DB2AF0D7B6
:10042000DF2A010E01E3DB2ADED7040EE15C02E2E3
:10043000E16AE552E16EE552E7CFD9FF1200D9CF6C
:10044000E6FFE1CFD9FFE652DF6ADEDDE0DD010E37
:10045000E66E6CDFE5520001280E6A6F060E6B6FC8
:1004600094DE56D83AD8700EE66E22D8E552AA0E1F
:10047000E66E1ED8E55236D830D8700EE66E18D823
:10048000E552AA0EE66E14D8E5522CD8A4DF25D882
:10049000700EE66E0DD8E552550EE66E09D8E5529F
:1004A00021D899DFE9D7E552E552E7CFD9FF12000D
:1004B000D9CFE6FFE1CFD9FFFE0EDB50C96E9EA675
:1004C000FED79E96E552E7CFD9FF1200C5869EA6BD
:1004D000FED79E96C95000D01200C5809EA6FED7BA
:1004E0009E961200C5849EA6FED79E961200C58ACF
:1004F000C5889EA6FED79E961200C59AC5889EA660
:10050000FED79E961200C5829EA6FED79E9612002A
:1005100094869488280EC66E800EC76E270EC86E0D
:020520001200C7
:0E052200060EF66E000EF76E000EF86E00016B
:100530000900F550656F0900F550666F03E16567C6
:1005400001D03DD00900F550606F0900F550616F92
:100550000900F550626F09000900F550E96E0900C5
:10056000F550EA6E090009000900F550636F0900B3
:10057000F550646F09000900F6CF67F0F7CF68F017
:10058000F8CF69F060C0F6FF61C0F7FF62C0F8FF06
:100590000001635302E1645307E00900F550EE6E79
:1005A0006307F8E26407F9D767C0F6FF68C0F7FF92
:1005B00069C0F8FF00016507000E665BBFD7120037
:1005C000036A026A100EE76ED890063607360236C6
:1005D00003360B50025C0C50035805E30B50025ECF
:0C05E0000C50035A062AE72EF0D7120038
:0405EC00000EF36E9C
:1005F00000EE00F0030E01D81200EA6002D0EE6AAD
:0C060000FCD7F350E9601200EE6AFCD752
:04060C0012EE00F0FA
:1006100022EE00F0F86A0F9C91EC02F019EC03F066
:080620001FEC02F0FBD71200F1
:08062800493243206368656359
:020630006B005D
:020632001200B4
:020000040030CA
:0100010008F6
:0100020019E4
:010003001EDE
:010005008278
:010006008178
:00000001FF
